{
  "_format": "hh-sol-artifact-1",
  "contractName": "FelicoinStaking",
  "sourceName": "contracts/FelicoinStaking.sol",
  "abi": [
    {
      "inputs": [
        {
          "internalType": "address",
          "name": "_felicoinToken",
          "type": "address"
        }
      ],
      "stateMutability": "nonpayable",
      "type": "constructor"
    },
    {
      "inputs": [
        {
          "internalType": "address",
          "name": "owner",
          "type": "address"
        }
      ],
      "name": "OwnableInvalidOwner",
      "type": "error"
    },
    {
      "inputs": [
        {
          "internalType": "address",
          "name": "account",
          "type": "address"
        }
      ],
      "name": "OwnableUnauthorizedAccount",
      "type": "error"
    },
    {
      "inputs": [],
      "name": "ReentrancyGuardReentrantCall",
      "type": "error"
    },
    {
      "anonymous": false,
      "inputs": [
        {
          "indexed": true,
          "internalType": "address",
          "name": "previousOwner",
          "type": "address"
        },
        {
          "indexed": true,
          "internalType": "address",
          "name": "newOwner",
          "type": "address"
        }
      ],
      "name": "OwnershipTransferred",
      "type": "event"
    },
    {
      "anonymous": false,
      "inputs": [
        {
          "indexed": false,
          "internalType": "uint256",
          "name": "oldRate",
          "type": "uint256"
        },
        {
          "indexed": false,
          "internalType": "uint256",
          "name": "newRate",
          "type": "uint256"
        }
      ],
      "name": "RewardRateUpdated",
      "type": "event"
    },
    {
      "anonymous": false,
      "inputs": [
        {
          "indexed": true,
          "internalType": "address",
          "name": "user",
          "type": "address"
        },
        {
          "indexed": false,
          "internalType": "uint256",
          "name": "amount",
          "type": "uint256"
        },
        {
          "indexed": false,
          "internalType": "uint256",
          "name": "timestamp",
          "type": "uint256"
        }
      ],
      "name": "RewardsClaimed",
      "type": "event"
    },
    {
      "anonymous": false,
      "inputs": [
        {
          "indexed": true,
          "internalType": "address",
          "name": "user",
          "type": "address"
        },
        {
          "indexed": false,
          "internalType": "uint256",
          "name": "amount",
          "type": "uint256"
        },
        {
          "indexed": false,
          "internalType": "uint256",
          "name": "timestamp",
          "type": "uint256"
        }
      ],
      "name": "Staked",
      "type": "event"
    },
    {
      "anonymous": false,
      "inputs": [
        {
          "indexed": true,
          "internalType": "address",
          "name": "user",
          "type": "address"
        },
        {
          "indexed": false,
          "internalType": "uint256",
          "name": "amount",
          "type": "uint256"
        },
        {
          "indexed": false,
          "internalType": "uint256",
          "name": "timestamp",
          "type": "uint256"
        }
      ],
      "name": "Withdrawn",
      "type": "event"
    },
    {
      "inputs": [],
      "name": "BASIS_POINTS",
      "outputs": [
        {
          "internalType": "uint256",
          "name": "",
          "type": "uint256"
        }
      ],
      "stateMutability": "view",
      "type": "function"
    },
    {
      "inputs": [],
      "name": "SECONDS_PER_YEAR",
      "outputs": [
        {
          "internalType": "uint256",
          "name": "",
          "type": "uint256"
        }
      ],
      "stateMutability": "view",
      "type": "function"
    },
    {
      "inputs": [
        {
          "internalType": "address",
          "name": "user",
          "type": "address"
        }
      ],
      "name": "calculateRewards",
      "outputs": [
        {
          "internalType": "uint256",
          "name": "",
          "type": "uint256"
        }
      ],
      "stateMutability": "view",
      "type": "function"
    },
    {
      "inputs": [],
      "name": "claimRewards",
      "outputs": [],
      "stateMutability": "nonpayable",
      "type": "function"
    },
    {
      "inputs": [],
      "name": "felicoinToken",
      "outputs": [
        {
          "internalType": "contract IERC20",
          "name": "",
          "type": "address"
        }
      ],
      "stateMutability": "view",
      "type": "function"
    },
    {
      "inputs": [
        {
          "internalType": "address",
          "name": "user",
          "type": "address"
        }
      ],
      "name": "getStakeInfo",
      "outputs": [
        {
          "internalType": "uint256",
          "name": "amount",
          "type": "uint256"
        },
        {
          "internalType": "uint256",
          "name": "stakedAt",
          "type": "uint256"
        },
        {
          "internalType": "uint256",
          "name": "lastClaimAt",
          "type": "uint256"
        },
        {
          "internalType": "uint256",
          "name": "pendingRewards",
          "type": "uint256"
        }
      ],
      "stateMutability": "view",
      "type": "function"
    },
    {
      "inputs": [],
      "name": "owner",
      "outputs": [
        {
          "internalType": "address",
          "name": "",
          "type": "address"
        }
      ],
      "stateMutability": "view",
      "type": "function"
    },
    {
      "inputs": [],
      "name": "renounceOwnership",
      "outputs": [],
      "stateMutability": "nonpayable",
      "type": "function"
    },
    {
      "inputs": [],
      "name": "rewardRate",
      "outputs": [
        {
          "internalType": "uint256",
          "name": "",
          "type": "uint256"
        }
      ],
      "stateMutability": "view",
      "type": "function"
    },
    {
      "inputs": [
        {
          "internalType": "uint256",
          "name": "amount",
          "type": "uint256"
        }
      ],
      "name": "stake",
      "outputs": [],
      "stateMutability": "nonpayable",
      "type": "function"
    },
    {
      "inputs": [
        {
          "internalType": "address",
          "name": "",
          "type": "address"
        }
      ],
      "name": "stakes",
      "outputs": [
        {
          "internalType": "uint256",
          "name": "amount",
          "type": "uint256"
        },
        {
          "internalType": "uint256",
          "name": "stakedAt",
          "type": "uint256"
        },
        {
          "internalType": "uint256",
          "name": "lastClaimAt",
          "type": "uint256"
        }
      ],
      "stateMutability": "view",
      "type": "function"
    },
    {
      "inputs": [],
      "name": "totalRewardsPaid",
      "outputs": [
        {
          "internalType": "uint256",
          "name": "",
          "type": "uint256"
        }
      ],
      "stateMutability": "view",
      "type": "function"
    },
    {
      "inputs": [],
      "name": "totalStaked",
      "outputs": [
        {
          "internalType": "uint256",
          "name": "",
          "type": "uint256"
        }
      ],
      "stateMutability": "view",
      "type": "function"
    },
    {
      "inputs": [
        {
          "internalType": "address",
          "name": "newOwner",
          "type": "address"
        }
      ],
      "name": "transferOwnership",
      "outputs": [],
      "stateMutability": "nonpayable",
      "type": "function"
    },
    {
      "inputs": [
        {
          "internalType": "uint256",
          "name": "newRate",
          "type": "uint256"
        }
      ],
      "name": "updateRewardRate",
      "outputs": [],
      "stateMutability": "nonpayable",
      "type": "function"
    },
    {
      "inputs": [
        {
          "internalType": "uint256",
          "name": "amount",
          "type": "uint256"
        }
      ],
      "name": "withdraw",
      "outputs": [],
      "stateMutability": "nonpayable",
      "type": "function"
    }
  ],
  "bytecode": "0x60806040526103e8600355348015610015575f80fd5b50604051610caf380380610caf83398101604081905261003491610134565b60015f55338061005e57604051631e4fbdf760e01b81525f60048201526024015b60405180910390fd5b610067816100e3565b506001600160a01b0381166100be5760405162461bcd60e51b815260206004820152601560248201527f496e76616c696420746f6b656e206164647265737300000000000000000000006044820152606401610055565b600280546001600160a01b0319166001600160a01b0392909216919091179055610161565b600180546001600160a01b038381166001600160a01b0319831681179093556040519116919082907f8be0079c531659141344cd1fd0a4f28419497f9722a3daafe3b4186f6b6457e0905f90a35050565b5f60208284031215610144575f80fd5b81516001600160a01b038116811461015a575f80fd5b9392505050565b610b418061016e5f395ff3fe608060405234801561000f575f80fd5b50600436106100fb575f3560e01c8063817b1cd211610093578063c345315311610063578063c345315314610210578063e1f1c4a714610243578063e6a69ab81461024c578063f2fde38b14610257575f80fd5b8063817b1cd2146101d05780638da5cb5b146101d95780639ef3a261146101ea578063a694fc3a146101fd575f80fd5b806364ab8675116100ce57806364ab867514610195578063715018a6146101b657806374958e35146101be5780637b0a47ee146101c7575f80fd5b806316934fc4146100ff5780632e1a7d4d1461014d578063372500ab146101625780634343efc61461016a575b5f80fd5b61012d61010d366004610a32565b60046020525f908152604090208054600182015460029092015490919083565b604080519384526020840192909252908201526060015b60405180910390f35b61016061015b366004610a5f565b61026a565b005b61016061047c565b60025461017d906001600160a01b031681565b6040516001600160a01b039091168152602001610144565b6101a86101a3366004610a32565b610498565b604051908152602001610144565b610160610538565b6101a860065481565b6101a860035481565b6101a860055481565b6001546001600160a01b031661017d565b6101606101f8366004610a5f565b610549565b61016061020b366004610a5f565b6105df565b61022361021e366004610a32565b6107ab565b604080519485526020850193909352918301526060820152608001610144565b6101a861271081565b6101a86301e1338081565b610160610265366004610a32565b61080a565b610272610844565b33816102c55760405162461bcd60e51b815260206004820152601860248201527f43616e6e6f74207769746864726177203020746f6b656e73000000000000000060448201526064015b60405180910390fd5b6001600160a01b0381165f9081526004602052604090205482111561032c5760405162461bcd60e51b815260206004820152601a60248201527f496e73756666696369656e74207374616b656420616d6f756e7400000000000060448201526064016102bc565b6103358161086c565b6001600160a01b0381165f908152600460205260408120805484929061035c908490610a8a565b925050819055508160055f8282546103749190610a8a565b909155505060025460405163a9059cbb60e01b81526001600160a01b038381166004830152602482018590529091169063a9059cbb906044016020604051808303815f875af11580156103c9573d5f803e3d5ffd5b505050506040513d601f19601f820116820180604052508101906103ed9190610aa3565b61042b5760405162461bcd60e51b815260206004820152600f60248201526e151c985b9cd9995c8819985a5b1959608a1b60448201526064016102bc565b604080518381524260208201526001600160a01b038316917f92ccf450a286a957af52509bc1c9939d1a6a481783e142e41e2499f0bb66ebc691015b60405180910390a25061047960015f55565b50565b610484610844565b61048d3361086c565b61049660015f55565b565b6001600160a01b0381165f90815260046020908152604080832081516060810183528154808252600183015494820194909452600290910154918101919091529082036104e757505f92915050565b5f8160400151426104f89190610a8a565b90505f61050b6301e13380612710610ac2565b6003548451849161051b91610ac2565b6105259190610ac2565b61052f9190610ad9565b95945050505050565b6105406109b4565b6104965f6109e1565b6105516109b4565b61138881111561059a5760405162461bcd60e51b81526020600482015260146024820152730a4caeec2e4c840e4c2e8ca40e8dede40d0d2ced60631b60448201526064016102bc565b600380549082905560408051828152602081018490527fc390a98ace15a7bb6bab611eedfdbb2685043b241a869420043cdfb23ccfee50910160405180910390a15050565b6105e7610844565b5f811161062e5760405162461bcd60e51b815260206004820152601560248201527443616e6e6f74207374616b65203020746f6b656e7360581b60448201526064016102bc565b335f818152600460205260409020541561064b5761064b8161086c565b6002546040516323b872dd60e01b81526001600160a01b03838116600483015230602483015260448201859052909116906323b872dd906064016020604051808303815f875af11580156106a1573d5f803e3d5ffd5b505050506040513d601f19601f820116820180604052508101906106c59190610aa3565b6107035760405162461bcd60e51b815260206004820152600f60248201526e151c985b9cd9995c8819985a5b1959608a1b60448201526064016102bc565b6001600160a01b0381165f908152600460205260408120805484929061072a908490610af8565b90915550506001600160a01b0381165f908152600460205260408120426001820181905560029091015560058054849290610766908490610af8565b9091555050604080518381524260208201526001600160a01b038316917f1449c6dd7851abc30abf37f57715f492010519147cc2652fbc38202c18a6ee909101610467565b6001600160a01b0381165f90815260046020908152604080832081516060810183528154808252600183015494820185905260029092015492810183905284938493849391906107fa89610498565b9450945094509450509193509193565b6108126109b4565b6001600160a01b03811661083b57604051631e4fbdf760e01b81525f60048201526024016102bc565b610479816109e1565b60025f540361086657604051633ee5aeb560e01b815260040160405180910390fd5b60025f55565b5f61087682610498565b905080156109b0576001600160a01b0382165f90815260046020526040812042600290910155600680548392906108ae908490610af8565b909155505060025460405163a9059cbb60e01b81526001600160a01b038481166004830152602482018490529091169063a9059cbb906044016020604051808303815f875af1158015610903573d5f803e3d5ffd5b505050506040513d601f19601f820116820180604052508101906109279190610aa3565b61096c5760405162461bcd60e51b815260206004820152601660248201527514995dd85c99081d1c985b9cd9995c8819985a5b195960521b60448201526064016102bc565b604080518281524260208201526001600160a01b038416917fdacbdde355ba930696a362ea6738feb9f8bd52dfb3d81947558fd3217e23e325910160405180910390a25b5050565b6001546001600160a01b031633146104965760405163118cdaa760e01b81523360048201526024016102bc565b600180546001600160a01b038381166001600160a01b0319831681179093556040519116919082907f8be0079c531659141344cd1fd0a4f28419497f9722a3daafe3b4186f6b6457e0905f90a35050565b5f60208284031215610a42575f80fd5b81356001600160a01b0381168114610a58575f80fd5b9392505050565b5f60208284031215610a6f575f80fd5b5035919050565b634e487b7160e01b5f52601160045260245ffd5b81810381811115610a9d57610a9d610a76565b92915050565b5f60208284031215610ab3575f80fd5b81518015158114610a58575f80fd5b8082028115828204841417610a9d57610a9d610a76565b5f82610af357634e487b7160e01b5f52601260045260245ffd5b500490565b80820180821115610a9d57610a9d610a7656fea2646970667358221220700080df6a17315adc2b5906b5bc2f9563ef1488212e5bcbbf03a9a96313ac4464736f6c63430008180033",
  "linkReferences": {},
  "deployedLinkReferences": {}
}