{
  "_format": "hh-sol-artifact-1",
  "contractName": "LoyaltyPayment",
  "sourceName": "contracts/LoyaltyPayment.sol",
  "abi": [
    {
      "inputs": [
        {
          "internalType": "address",
          "name": "_felicoinToken",
          "type": "address"
        }
      ],
      "stateMutability": "nonpayable",
      "type": "constructor"
    },
    {
      "inputs": [
        {
          "internalType": "address",
          "name": "owner",
          "type": "address"
        }
      ],
      "name": "OwnableInvalidOwner",
      "type": "error"
    },
    {
      "inputs": [
        {
          "internalType": "address",
          "name": "account",
          "type": "address"
        }
      ],
      "name": "OwnableUnauthorizedAccount",
      "type": "error"
    },
    {
      "anonymous": false,
      "inputs": [
        {
          "indexed": false,
          "internalType": "uint256",
          "name": "oldRate",
          "type": "uint256"
        },
        {
          "indexed": false,
          "internalType": "uint256",
          "name": "newRate",
          "type": "uint256"
        }
      ],
      "name": "CashbackRateUpdated",
      "type": "event"
    },
    {
      "anonymous": false,
      "inputs": [
        {
          "indexed": true,
          "internalType": "address",
          "name": "merchant",
          "type": "address"
        },
        {
          "indexed": false,
          "internalType": "bool",
          "name": "authorized",
          "type": "bool"
        }
      ],
      "name": "MerchantAuthorized",
      "type": "event"
    },
    {
      "anonymous": false,
      "inputs": [
        {
          "indexed": true,
          "internalType": "address",
          "name": "previousOwner",
          "type": "address"
        },
        {
          "indexed": true,
          "internalType": "address",
          "name": "newOwner",
          "type": "address"
        }
      ],
      "name": "OwnershipTransferred",
      "type": "event"
    },
    {
      "anonymous": false,
      "inputs": [
        {
          "indexed": true,
          "internalType": "address",
          "name": "buyer",
          "type": "address"
        },
        {
          "indexed": true,
          "internalType": "address",
          "name": "merchant",
          "type": "address"
        },
        {
          "indexed": false,
          "internalType": "uint256",
          "name": "amount",
          "type": "uint256"
        },
        {
          "indexed": false,
          "internalType": "uint256",
          "name": "reward",
          "type": "uint256"
        },
        {
          "indexed": false,
          "internalType": "uint256",
          "name": "timestamp",
          "type": "uint256"
        }
      ],
      "name": "PurchaseProcessed",
      "type": "event"
    },
    {
      "inputs": [],
      "name": "BASIS_POINTS",
      "outputs": [
        {
          "internalType": "uint256",
          "name": "",
          "type": "uint256"
        }
      ],
      "stateMutability": "view",
      "type": "function"
    },
    {
      "inputs": [
        {
          "internalType": "address",
          "name": "",
          "type": "address"
        }
      ],
      "name": "authorizedMerchants",
      "outputs": [
        {
          "internalType": "bool",
          "name": "",
          "type": "bool"
        }
      ],
      "stateMutability": "view",
      "type": "function"
    },
    {
      "inputs": [],
      "name": "cashbackRate",
      "outputs": [
        {
          "internalType": "uint256",
          "name": "",
          "type": "uint256"
        }
      ],
      "stateMutability": "view",
      "type": "function"
    },
    {
      "inputs": [],
      "name": "felicoinToken",
      "outputs": [
        {
          "internalType": "contract FelicoinToken",
          "name": "",
          "type": "address"
        }
      ],
      "stateMutability": "view",
      "type": "function"
    },
    {
      "inputs": [
        {
          "internalType": "address",
          "name": "merchant",
          "type": "address"
        }
      ],
      "name": "isMerchantAuthorized",
      "outputs": [
        {
          "internalType": "bool",
          "name": "",
          "type": "bool"
        }
      ],
      "stateMutability": "view",
      "type": "function"
    },
    {
      "inputs": [],
      "name": "owner",
      "outputs": [
        {
          "internalType": "address",
          "name": "",
          "type": "address"
        }
      ],
      "stateMutability": "view",
      "type": "function"
    },
    {
      "inputs": [
        {
          "internalType": "address",
          "name": "merchant",
          "type": "address"
        },
        {
          "internalType": "uint256",
          "name": "amount",
          "type": "uint256"
        }
      ],
      "name": "processPurchase",
      "outputs": [],
      "stateMutability": "nonpayable",
      "type": "function"
    },
    {
      "inputs": [],
      "name": "renounceOwnership",
      "outputs": [],
      "stateMutability": "nonpayable",
      "type": "function"
    },
    {
      "inputs": [
        {
          "internalType": "address",
          "name": "merchant",
          "type": "address"
        },
        {
          "internalType": "bool",
          "name": "authorized",
          "type": "bool"
        }
      ],
      "name": "setMerchantAuthorization",
      "outputs": [],
      "stateMutability": "nonpayable",
      "type": "function"
    },
    {
      "inputs": [],
      "name": "totalCashbackDistributed",
      "outputs": [
        {
          "internalType": "uint256",
          "name": "",
          "type": "uint256"
        }
      ],
      "stateMutability": "view",
      "type": "function"
    },
    {
      "inputs": [],
      "name": "totalPurchases",
      "outputs": [
        {
          "internalType": "uint256",
          "name": "",
          "type": "uint256"
        }
      ],
      "stateMutability": "view",
      "type": "function"
    },
    {
      "inputs": [
        {
          "internalType": "address",
          "name": "newOwner",
          "type": "address"
        }
      ],
      "name": "transferOwnership",
      "outputs": [],
      "stateMutability": "nonpayable",
      "type": "function"
    },
    {
      "inputs": [
        {
          "internalType": "uint256",
          "name": "newRate",
          "type": "uint256"
        }
      ],
      "name": "updateCashbackRate",
      "outputs": [],
      "stateMutability": "nonpayable",
      "type": "function"
    }
  ],
  "bytecode": "0x60806040526101f4600255348015610015575f80fd5b5060405161099f38038061099f8339810160408190526100349161012e565b338061005a57604051631e4fbdf760e01b81525f60048201526024015b60405180910390fd5b610063816100df565b506001600160a01b0381166100ba5760405162461bcd60e51b815260206004820152601560248201527f496e76616c696420746f6b656e206164647265737300000000000000000000006044820152606401610051565b600180546001600160a01b0319166001600160a01b039290921691909117905561015b565b5f80546001600160a01b038381166001600160a01b0319831681178455604051919092169283917f8be0079c531659141344cd1fd0a4f28419497f9722a3daafe3b4186f6b6457e09190a35050565b5f6020828403121561013e575f80fd5b81516001600160a01b0381168114610154575f80fd5b9392505050565b610837806101685f395ff3fe608060405234801561000f575f80fd5b50600436106100cb575f3560e01c8063a440086011610088578063b9f71b8911610063578063b9f71b89146101a3578063ca2efd38146101b6578063e1f1c4a7146101d8578063f2fde38b146101e1575f80fd5b8063a44008601461014c578063aa11b06014610187578063b29f6ef21461019a575f80fd5b80634343efc6146100cf5780635962a941146100ff578063715018a61461011657806378547d5f146101205780638da5cb5b146101335780639c7bc08e14610143575b5f80fd5b6001546100e2906001600160a01b031681565b6040516001600160a01b0390911681526020015b60405180910390f35b61010860045481565b6040519081526020016100f6565b61011e6101f4565b005b61011e61012e3660046106ca565b610207565b5f546001600160a01b03166100e2565b61010860025481565b61017761015a3660046106f2565b6001600160a01b03165f9081526003602052604090205460ff1690565b60405190151581526020016100f6565b61011e61019536600461071f565b6104a3565b61010860055481565b61011e6101b1366004610754565b61055f565b6101776101c43660046106f2565b60036020525f908152604090205460ff1681565b61010861271081565b61011e6101ef3660046106f2565b6105f7565b6101fc610634565b6102055f610660565b565b6001600160a01b0382165f9081526003602052604090205460ff166102735760405162461bcd60e51b815260206004820152601760248201527f4d65726368616e74206e6f7420617574686f72697a656400000000000000000060448201526064015b60405180910390fd5b5f81116102c25760405162461bcd60e51b815260206004820152601d60248201527f416d6f756e74206d7573742062652067726561746572207468616e2030000000604482015260640161026a565b60025433905f90612710906102d7908561077f565b6102e1919061079c565b6001546040516323b872dd60e01b81526001600160a01b0385811660048301528781166024830152604482018790529293509116906323b872dd906064016020604051808303815f875af115801561033b573d5f803e3d5ffd5b505050506040513d601f19601f8201168201806040525081019061035f91906107bb565b6103ab5760405162461bcd60e51b815260206004820152601b60248201527f5472616e7366657220746f206d65726368616e74206661696c65640000000000604482015260640161026a565b8015610429576001546040516340c10f1960e01b81526001600160a01b03848116600483015260248201849052909116906340c10f19906044015f604051808303815f87803b1580156103fc575f80fd5b505af115801561040e573d5f803e3d5ffd5b505050508060055f82825461042391906107d6565b90915550505b60048054905f610438836107e9565b9190505550836001600160a01b0316826001600160a01b03167f2866281120d57587d162efe2c00b092c58016359c0884e90b29594f8516acbeb858442604051610495939291909283526020830191909152604082015260600190565b60405180910390a350505050565b6104ab610634565b6001600160a01b0382166105015760405162461bcd60e51b815260206004820152601860248201527f496e76616c6964206d65726368616e7420616464726573730000000000000000604482015260640161026a565b6001600160a01b0382165f81815260036020908152604091829020805460ff191685151590811790915591519182527f1088803b160c4934a9ec61e41ea7673773fb398933a93778896b7f44abf28adf910160405180910390a25050565b610567610634565b6107d08111156105b25760405162461bcd60e51b8152602060048201526016602482015275086c2e6d0c4c2c6d640e4c2e8ca40e8dede40d0d2ced60531b604482015260640161026a565b600280549082905560408051828152602081018490527fcfc83c9b64ff6e3286f17245a52d0fb92bd366166768d612bb1b8b476447889c910160405180910390a15050565b6105ff610634565b6001600160a01b03811661062857604051631e4fbdf760e01b81525f600482015260240161026a565b61063181610660565b50565b5f546001600160a01b031633146102055760405163118cdaa760e01b815233600482015260240161026a565b5f80546001600160a01b038381166001600160a01b0319831681178455604051919092169283917f8be0079c531659141344cd1fd0a4f28419497f9722a3daafe3b4186f6b6457e09190a35050565b80356001600160a01b03811681146106c5575f80fd5b919050565b5f80604083850312156106db575f80fd5b6106e4836106af565b946020939093013593505050565b5f60208284031215610702575f80fd5b61070b826106af565b9392505050565b8015158114610631575f80fd5b5f8060408385031215610730575f80fd5b610739836106af565b9150602083013561074981610712565b809150509250929050565b5f60208284031215610764575f80fd5b5035919050565b634e487b7160e01b5f52601160045260245ffd5b80820281158282048414176107965761079661076b565b92915050565b5f826107b657634e487b7160e01b5f52601260045260245ffd5b500490565b5f602082840312156107cb575f80fd5b815161070b81610712565b808201808211156107965761079661076b565b5f600182016107fa576107fa61076b565b506001019056fea26469706673582212201f971b49aa9d32bbf3ae6e1104489d522213534d08eae5844257a4ca5adc1f4564736f6c63430008180033",
  "linkReferences": {},
  "deployedLinkReferences": {}
}