{
  "_format": "hh-sol-artifact-1",
  "contractName": "FelicoinToken",
  "sourceName": "contracts/FelicoinToken.sol",
  "abi": [
    {
      "inputs": [],
      "stateMutability": "nonpayable",
      "type": "constructor"
    },
    {
      "inputs": [],
      "name": "AccessControlBadConfirmation",
      "type": "error"
    },
    {
      "inputs": [
        {
          "internalType": "address",
          "name": "account",
          "type": "address"
        },
        {
          "internalType": "bytes32",
          "name": "neededRole",
          "type": "bytes32"
        }
      ],
      "name": "AccessControlUnauthorizedAccount",
      "type": "error"
    },
    {
      "inputs": [
        {
          "internalType": "address",
          "name": "spender",
          "type": "address"
        },
        {
          "internalType": "uint256",
          "name": "allowance",
          "type": "uint256"
        },
        {
          "internalType": "uint256",
          "name": "needed",
          "type": "uint256"
        }
      ],
      "name": "ERC20InsufficientAllowance",
      "type": "error"
    },
    {
      "inputs": [
        {
          "internalType": "address",
          "name": "sender",
          "type": "address"
        },
        {
          "internalType": "uint256",
          "name": "balance",
          "type": "uint256"
        },
        {
          "internalType": "uint256",
          "name": "needed",
          "type": "uint256"
        }
      ],
      "name": "ERC20InsufficientBalance",
      "type": "error"
    },
    {
      "inputs": [
        {
          "internalType": "address",
          "name": "approver",
          "type": "address"
        }
      ],
      "name": "ERC20InvalidApprover",
      "type": "error"
    },
    {
      "inputs": [
        {
          "internalType": "address",
          "name": "receiver",
          "type": "address"
        }
      ],
      "name": "ERC20InvalidReceiver",
      "type": "error"
    },
    {
      "inputs": [
        {
          "internalType": "address",
          "name": "sender",
          "type": "address"
        }
      ],
      "name": "ERC20InvalidSender",
      "type": "error"
    },
    {
      "inputs": [
        {
          "internalType": "address",
          "name": "spender",
          "type": "address"
        }
      ],
      "name": "ERC20InvalidSpender",
      "type": "error"
    },
    {
      "anonymous": false,
      "inputs": [
        {
          "indexed": true,
          "internalType": "address",
          "name": "owner",
          "type": "address"
        },
        {
          "indexed": true,
          "internalType": "address",
          "name": "spender",
          "type": "address"
        },
        {
          "indexed": false,
          "internalType": "uint256",
          "name": "value",
          "type": "uint256"
        }
      ],
      "name": "Approval",
      "type": "event"
    },
    {
      "anonymous": false,
      "inputs": [
        {
          "indexed": true,
          "internalType": "bytes32",
          "name": "role",
          "type": "bytes32"
        },
        {
          "indexed": true,
          "internalType": "bytes32",
          "name": "previousAdminRole",
          "type": "bytes32"
        },
        {
          "indexed": true,
          "internalType": "bytes32",
          "name": "newAdminRole",
          "type": "bytes32"
        }
      ],
      "name": "RoleAdminChanged",
      "type": "event"
    },
    {
      "anonymous": false,
      "inputs": [
        {
          "indexed": true,
          "internalType": "bytes32",
          "name": "role",
          "type": "bytes32"
        },
        {
          "indexed": true,
          "internalType": "address",
          "name": "account",
          "type": "address"
        },
        {
          "indexed": true,
          "internalType": "address",
          "name": "sender",
          "type": "address"
        }
      ],
      "name": "RoleGranted",
      "type": "event"
    },
    {
      "anonymous": false,
      "inputs": [
        {
          "indexed": true,
          "internalType": "bytes32",
          "name": "role",
          "type": "bytes32"
        },
        {
          "indexed": true,
          "internalType": "address",
          "name": "account",
          "type": "address"
        },
        {
          "indexed": true,
          "internalType": "address",
          "name": "sender",
          "type": "address"
        }
      ],
      "name": "RoleRevoked",
      "type": "event"
    },
    {
      "anonymous": false,
      "inputs": [
        {
          "indexed": true,
          "internalType": "address",
          "name": "from",
          "type": "address"
        },
        {
          "indexed": false,
          "internalType": "uint256",
          "name": "amount",
          "type": "uint256"
        }
      ],
      "name": "TokensBurned",
      "type": "event"
    },
    {
      "anonymous": false,
      "inputs": [
        {
          "indexed": true,
          "internalType": "address",
          "name": "to",
          "type": "address"
        },
        {
          "indexed": false,
          "internalType": "uint256",
          "name": "amount",
          "type": "uint256"
        }
      ],
      "name": "TokensMinted",
      "type": "event"
    },
    {
      "anonymous": false,
      "inputs": [
        {
          "indexed": true,
          "internalType": "address",
          "name": "from",
          "type": "address"
        },
        {
          "indexed": true,
          "internalType": "address",
          "name": "to",
          "type": "address"
        },
        {
          "indexed": false,
          "internalType": "uint256",
          "name": "value",
          "type": "uint256"
        }
      ],
      "name": "Transfer",
      "type": "event"
    },
    {
      "inputs": [],
      "name": "DEFAULT_ADMIN_ROLE",
      "outputs": [
        {
          "internalType": "bytes32",
          "name": "",
          "type": "bytes32"
        }
      ],
      "stateMutability": "view",
      "type": "function"
    },
    {
      "inputs": [],
      "name": "INITIAL_SUPPLY",
      "outputs": [
        {
          "internalType": "uint256",
          "name": "",
          "type": "uint256"
        }
      ],
      "stateMutability": "view",
      "type": "function"
    },
    {
      "inputs": [],
      "name": "MINTER_ROLE",
      "outputs": [
        {
          "internalType": "bytes32",
          "name": "",
          "type": "bytes32"
        }
      ],
      "stateMutability": "view",
      "type": "function"
    },
    {
      "inputs": [
        {
          "internalType": "address",
          "name": "owner",
          "type": "address"
        },
        {
          "internalType": "address",
          "name": "spender",
          "type": "address"
        }
      ],
      "name": "allowance",
      "outputs": [
        {
          "internalType": "uint256",
          "name": "",
          "type": "uint256"
        }
      ],
      "stateMutability": "view",
      "type": "function"
    },
    {
      "inputs": [
        {
          "internalType": "address",
          "name": "spender",
          "type": "address"
        },
        {
          "internalType": "uint256",
          "name": "value",
          "type": "uint256"
        }
      ],
      "name": "approve",
      "outputs": [
        {
          "internalType": "bool",
          "name": "",
          "type": "bool"
        }
      ],
      "stateMutability": "nonpayable",
      "type": "function"
    },
    {
      "inputs": [
        {
          "internalType": "address",
          "name": "account",
          "type": "address"
        }
      ],
      "name": "balanceOf",
      "outputs": [
        {
          "internalType": "uint256",
          "name": "",
          "type": "uint256"
        }
      ],
      "stateMutability": "view",
      "type": "function"
    },
    {
      "inputs": [
        {
          "internalType": "uint256",
          "name": "amount",
          "type": "uint256"
        }
      ],
      "name": "burn",
      "outputs": [],
      "stateMutability": "nonpayable",
      "type": "function"
    },
    {
      "inputs": [
        {
          "internalType": "address",
          "name": "account",
          "type": "address"
        },
        {
          "internalType": "uint256",
          "name": "amount",
          "type": "uint256"
        }
      ],
      "name": "burnFrom",
      "outputs": [],
      "stateMutability": "nonpayable",
      "type": "function"
    },
    {
      "inputs": [],
      "name": "decimals",
      "outputs": [
        {
          "internalType": "uint8",
          "name": "",
          "type": "uint8"
        }
      ],
      "stateMutability": "view",
      "type": "function"
    },
    {
      "inputs": [
        {
          "internalType": "bytes32",
          "name": "role",
          "type": "bytes32"
        }
      ],
      "name": "getRoleAdmin",
      "outputs": [
        {
          "internalType": "bytes32",
          "name": "",
          "type": "bytes32"
        }
      ],
      "stateMutability": "view",
      "type": "function"
    },
    {
      "inputs": [
        {
          "internalType": "bytes32",
          "name": "role",
          "type": "bytes32"
        },
        {
          "internalType": "address",
          "name": "account",
          "type": "address"
        }
      ],
      "name": "grantRole",
      "outputs": [],
      "stateMutability": "nonpayable",
      "type": "function"
    },
    {
      "inputs": [
        {
          "internalType": "bytes32",
          "name": "role",
          "type": "bytes32"
        },
        {
          "internalType": "address",
          "name": "account",
          "type": "address"
        }
      ],
      "name": "hasRole",
      "outputs": [
        {
          "internalType": "bool",
          "name": "",
          "type": "bool"
        }
      ],
      "stateMutability": "view",
      "type": "function"
    },
    {
      "inputs": [
        {
          "internalType": "address",
          "name": "to",
          "type": "address"
        },
        {
          "internalType": "uint256",
          "name": "amount",
          "type": "uint256"
        }
      ],
      "name": "mint",
      "outputs": [],
      "stateMutability": "nonpayable",
      "type": "function"
    },
    {
      "inputs": [],
      "name": "name",
      "outputs": [
        {
          "internalType": "string",
          "name": "",
          "type": "string"
        }
      ],
      "stateMutability": "view",
      "type": "function"
    },
    {
      "inputs": [
        {
          "internalType": "bytes32",
          "name": "role",
          "type": "bytes32"
        },
        {
          "internalType": "address",
          "name": "callerConfirmation",
          "type": "address"
        }
      ],
      "name": "renounceRole",
      "outputs": [],
      "stateMutability": "nonpayable",
      "type": "function"
    },
    {
      "inputs": [
        {
          "internalType": "bytes32",
          "name": "role",
          "type": "bytes32"
        },
        {
          "internalType": "address",
          "name": "account",
          "type": "address"
        }
      ],
      "name": "revokeRole",
      "outputs": [],
      "stateMutability": "nonpayable",
      "type": "function"
    },
    {
      "inputs": [
        {
          "internalType": "bytes4",
          "name": "interfaceId",
          "type": "bytes4"
        }
      ],
      "name": "supportsInterface",
      "outputs": [
        {
          "internalType": "bool",
          "name": "",
          "type": "bool"
        }
      ],
      "stateMutability": "view",
      "type": "function"
    },
    {
      "inputs": [],
      "name": "symbol",
      "outputs": [
        {
          "internalType": "string",
          "name": "",
          "type": "string"
        }
      ],
      "stateMutability": "view",
      "type": "function"
    },
    {
      "inputs": [],
      "name": "totalSupply",
      "outputs": [
        {
          "internalType": "uint256",
          "name": "",
          "type": "uint256"
        }
      ],
      "stateMutability": "view",
      "type": "function"
    },
    {
      "inputs": [
        {
          "internalType": "address",
          "name": "to",
          "type": "address"
        },
        {
          "internalType": "uint256",
          "name": "value",
          "type": "uint256"
        }
      ],
      "name": "transfer",
      "outputs": [
        {
          "internalType": "bool",
          "name": "",
          "type": "bool"
        }
      ],
      "stateMutability": "nonpayable",
      "type": "function"
    },
    {
      "inputs": [
        {
          "internalType": "address",
          "name": "from",
          "type": "address"
        },
        {
          "internalType": "address",
          "name": "to",
          "type": "address"
        },
        {
          "internalType": "uint256",
          "name": "value",
          "type": "uint256"
        }
      ],
      "name": "transferFrom",
      "outputs": [
        {
          "internalType": "bool",
          "name": "",
          "type": "bool"
        }
      ],
      "stateMutability": "nonpayable",
      "type": "function"
    }
  ],
  "bytecode": "0x608060405234801562000010575f80fd5b50604051806040016040528060088152602001672332b634b1b7b4b760c11b8152506040518060400160405280600481526020016346454c4960e01b815250816003908162000060919062000387565b5060046200006f828262000387565b506200008091505f905033620000ca565b50620000ad7f9f2df0fed2c77648de5860a4cc508cd0818c85b8b8a1ab4ceeef8d981c8956a633620000ca565b50620000c43369d3c21bcecceda10000006200017a565b62000473565b5f8281526005602090815260408083206001600160a01b038516845290915281205460ff1662000171575f8381526005602090815260408083206001600160a01b03861684529091529020805460ff19166001179055620001283390565b6001600160a01b0316826001600160a01b0316847f2f8788117e7eff1d82e926ec794901d17c78024a50270940304540a733656f0d60405160405180910390a450600162000174565b505f5b92915050565b6001600160a01b038216620001a95760405163ec442f0560e01b81525f60048201526024015b60405180910390fd5b620001b65f8383620001ba565b5050565b6001600160a01b038316620001e8578060025f828254620001dc919062000453565b909155506200025a9050565b6001600160a01b0383165f90815260208190526040902054818110156200023c5760405163391434e360e21b81526001600160a01b03851660048201526024810182905260448101839052606401620001a0565b6001600160a01b0384165f9081526020819052604090209082900390555b6001600160a01b038216620002785760028054829003905562000296565b6001600160a01b0382165f9081526020819052604090208054820190555b816001600160a01b0316836001600160a01b03167fddf252ad1be2c89b69c2b068fc378daa952ba7f163c4a11628f55a4df523b3ef83604051620002dc91815260200190565b60405180910390a3505050565b634e487b7160e01b5f52604160045260245ffd5b600181811c908216806200031257607f821691505b6020821081036200033157634e487b7160e01b5f52602260045260245ffd5b50919050565b601f8211156200038257805f5260205f20601f840160051c810160208510156200035e5750805b601f840160051c820191505b818110156200037f575f81556001016200036a565b50505b505050565b81516001600160401b03811115620003a357620003a3620002e9565b620003bb81620003b48454620002fd565b8462000337565b602080601f831160018114620003f1575f8415620003d95750858301515b5f19600386901b1c1916600185901b1785556200044b565b5f85815260208120601f198616915b82811015620004215788860151825594840194600190910190840162000400565b50858210156200043f57878501515f19600388901b60f8161c191681555b505060018460011b0185555b505050505050565b808201808211156200017457634e487b7160e01b5f52601160045260245ffd5b610ca680620004815f395ff3fe608060405234801561000f575f80fd5b5060043610610132575f3560e01c806340c10f19116100b457806395d89b411161007957806395d89b4114610289578063a217fddf14610291578063a9059cbb14610298578063d5391393146102ab578063d547741f146102d2578063dd62ed3e146102e5575f80fd5b806340c10f191461021557806342966c681461022857806370a082311461023b57806379cc67901461026357806391d1485414610276575f80fd5b8063248a9ca3116100fa578063248a9ca3146101ab5780632f2ff15d146101cd5780632ff2e9dc146101e2578063313ce567146101f357806336568abe14610202575f80fd5b806301ffc9a71461013657806306fdde031461015e578063095ea7b31461017357806318160ddd1461018657806323b872dd14610198575b5f80fd5b610149610144366004610aa1565b61031d565b60405190151581526020015b60405180910390f35b610166610353565b6040516101559190610acf565b610149610181366004610b36565b6103e3565b6002545b604051908152602001610155565b6101496101a6366004610b5e565b6103fa565b61018a6101b9366004610b97565b5f9081526005602052604090206001015490565b6101e06101db366004610bae565b61041d565b005b61018a69d3c21bcecceda100000081565b60405160128152602001610155565b6101e0610210366004610bae565b610447565b6101e0610223366004610b36565b61047f565b6101e0610236366004610b97565b6104fb565b61018a610249366004610bd8565b6001600160a01b03165f9081526020819052604090205490565b6101e0610271366004610b36565b61053c565b610149610284366004610bae565b61058d565b6101666105b7565b61018a5f81565b6101496102a6366004610b36565b6105c6565b61018a7f9f2df0fed2c77648de5860a4cc508cd0818c85b8b8a1ab4ceeef8d981c8956a681565b6101e06102e0366004610bae565b6105d3565b61018a6102f3366004610bf1565b6001600160a01b039182165f90815260016020908152604080832093909416825291909152205490565b5f6001600160e01b03198216637965db0b60e01b148061034d57506301ffc9a760e01b6001600160e01b03198316145b92915050565b60606003805461036290610c19565b80601f016020809104026020016040519081016040528092919081815260200182805461038e90610c19565b80156103d95780601f106103b0576101008083540402835291602001916103d9565b820191905f5260205f20905b8154815290600101906020018083116103bc57829003601f168201915b5050505050905090565b5f336103f08185856105f7565b5060019392505050565b5f33610407858285610604565b61041285858561067f565b506001949350505050565b5f82815260056020526040902060010154610437816106dc565b61044183836106e9565b50505050565b6001600160a01b03811633146104705760405163334bd91960e11b815260040160405180910390fd5b61047a828261077a565b505050565b7f9f2df0fed2c77648de5860a4cc508cd0818c85b8b8a1ab4ceeef8d981c8956a66104a9816106dc565b6104b383836107e5565b826001600160a01b03167f3f2c9d57c068687834f0de942a9babb9e5acab57d516d3480a3c16ee165a4273836040516104ee91815260200190565b60405180910390a2505050565b6105048161081d565b60405181815233907ffd38818f5291bf0bb3a2a48aadc06ba8757865d1dabd804585338aab3009dcb69060200160405180910390a250565b6105468282610827565b816001600160a01b03167ffd38818f5291bf0bb3a2a48aadc06ba8757865d1dabd804585338aab3009dcb68260405161058191815260200190565b60405180910390a25050565b5f9182526005602090815260408084206001600160a01b0393909316845291905290205460ff1690565b60606004805461036290610c19565b5f336103f081858561067f565b5f828152600560205260409020600101546105ed816106dc565b610441838361077a565b61047a838383600161083c565b6001600160a01b038381165f908152600160209081526040808320938616835292905220545f19811015610441578181101561067157604051637dc7a0d960e11b81526001600160a01b038416600482015260248101829052604481018390526064015b60405180910390fd5b61044184848484035f61083c565b6001600160a01b0383166106a857604051634b637e8f60e11b81525f6004820152602401610668565b6001600160a01b0382166106d15760405163ec442f0560e01b81525f6004820152602401610668565b61047a83838361090e565b6106e68133610a34565b50565b5f6106f4838361058d565b610773575f8381526005602090815260408083206001600160a01b03861684529091529020805460ff1916600117905561072b3390565b6001600160a01b0316826001600160a01b0316847f2f8788117e7eff1d82e926ec794901d17c78024a50270940304540a733656f0d60405160405180910390a450600161034d565b505f61034d565b5f610785838361058d565b15610773575f8381526005602090815260408083206001600160a01b0386168085529252808320805460ff1916905551339286917ff6391f5c32d9c69d2a47ea670b442974b53935d1edc7fd64eb21e047a839171b9190a450600161034d565b6001600160a01b03821661080e5760405163ec442f0560e01b81525f6004820152602401610668565b6108195f838361090e565b5050565b6106e63382610a6d565b610832823383610604565b6108198282610a6d565b6001600160a01b0384166108655760405163e602df0560e01b81525f6004820152602401610668565b6001600160a01b03831661088e57604051634a1406b160e11b81525f6004820152602401610668565b6001600160a01b038085165f908152600160209081526040808320938716835292905220829055801561044157826001600160a01b0316846001600160a01b03167f8c5be1e5ebec7d5bd14f71427d1e84f3dd0314c0f7b2291e5b200ac8c7c3b9258460405161090091815260200190565b60405180910390a350505050565b6001600160a01b038316610938578060025f82825461092d9190610c51565b909155506109a89050565b6001600160a01b0383165f908152602081905260409020548181101561098a5760405163391434e360e21b81526001600160a01b03851660048201526024810182905260448101839052606401610668565b6001600160a01b0384165f9081526020819052604090209082900390555b6001600160a01b0382166109c4576002805482900390556109e2565b6001600160a01b0382165f9081526020819052604090208054820190555b816001600160a01b0316836001600160a01b03167fddf252ad1be2c89b69c2b068fc378daa952ba7f163c4a11628f55a4df523b3ef83604051610a2791815260200190565b60405180910390a3505050565b610a3e828261058d565b6108195760405163e2517d3f60e01b81526001600160a01b038216600482015260248101839052604401610668565b6001600160a01b038216610a9657604051634b637e8f60e11b81525f6004820152602401610668565b610819825f8361090e565b5f60208284031215610ab1575f80fd5b81356001600160e01b031981168114610ac8575f80fd5b9392505050565b5f602080835283518060208501525f5b81811015610afb57858101830151858201604001528201610adf565b505f604082860101526040601f19601f8301168501019250505092915050565b80356001600160a01b0381168114610b31575f80fd5b919050565b5f8060408385031215610b47575f80fd5b610b5083610b1b565b946020939093013593505050565b5f805f60608486031215610b70575f80fd5b610b7984610b1b565b9250610b8760208501610b1b565b9150604084013590509250925092565b5f60208284031215610ba7575f80fd5b5035919050565b5f8060408385031215610bbf575f80fd5b82359150610bcf60208401610b1b565b90509250929050565b5f60208284031215610be8575f80fd5b610ac882610b1b565b5f8060408385031215610c02575f80fd5b610c0b83610b1b565b9150610bcf60208401610b1b565b600181811c90821680610c2d57607f821691505b602082108103610c4b57634e487b7160e01b5f52602260045260245ffd5b50919050565b8082018082111561034d57634e487b7160e01b5f52601160045260245ffdfea264697066735822122073a80734916ade8134a5dd2f776939268fd429bb440f2272d7968ee0701242b364736f6c63430008180033",
  "linkReferences": {},
  "deployedLinkReferences": {}
}