{
  "_format": "hh-sol-artifact-1",
  "contractName": "FelicoinGovernor",
  "sourceName": "contracts/FelicoinGovernor.sol",
  "abi": [
    {
      "inputs": [
        {
          "internalType": "contract IVotes",
          "name": "_token",
          "type": "address"
        },
        {
          "internalType": "address",
          "name": "_identityRegistry",
          "type": "address"
        }
      ],
      "stateMutability": "nonpayable",
      "type": "constructor"
    },
    {
      "inputs": [],
      "name": "CheckpointUnorderedInsertion",
      "type": "error"
    },
    {
      "inputs": [],
      "name": "FailedCall",
      "type": "error"
    },
    {
      "inputs": [
        {
          "internalType": "address",
          "name": "voter",
          "type": "address"
        }
      ],
      "name": "GovernorAlreadyCastVote",
      "type": "error"
    },
    {
      "inputs": [
        {
          "internalType": "uint256",
          "name": "proposalId",
          "type": "uint256"
        }
      ],
      "name": "GovernorAlreadyQueuedProposal",
      "type": "error"
    },
    {
      "inputs": [],
      "name": "GovernorDisabledDeposit",
      "type": "error"
    },
    {
      "inputs": [
        {
          "internalType": "address",
          "name": "proposer",
          "type": "address"
        },
        {
          "internalType": "uint256",
          "name": "votes",
          "type": "uint256"
        },
        {
          "internalType": "uint256",
          "name": "threshold",
          "type": "uint256"
        }
      ],
      "name": "GovernorInsufficientProposerVotes",
      "type": "error"
    },
    {
      "inputs": [
        {
          "internalType": "uint256",
          "name": "targets",
          "type": "uint256"
        },
        {
          "internalType": "uint256",
          "name": "calldatas",
          "type": "uint256"
        },
        {
          "internalType": "uint256",
          "name": "values",
          "type": "uint256"
        }
      ],
      "name": "GovernorInvalidProposalLength",
      "type": "error"
    },
    {
      "inputs": [
        {
          "internalType": "uint256",
          "name": "quorumNumerator",
          "type": "uint256"
        },
        {
          "internalType": "uint256",
          "name": "quorumDenominator",
          "type": "uint256"
        }
      ],
      "name": "GovernorInvalidQuorumFraction",
      "type": "error"
    },
    {
      "inputs": [
        {
          "internalType": "address",
          "name": "voter",
          "type": "address"
        }
      ],
      "name": "GovernorInvalidSignature",
      "type": "error"
    },
    {
      "inputs": [],
      "name": "GovernorInvalidVoteParams",
      "type": "error"
    },
    {
      "inputs": [],
      "name": "GovernorInvalidVoteType",
      "type": "error"
    },
    {
      "inputs": [
        {
          "internalType": "uint256",
          "name": "votingPeriod",
          "type": "uint256"
        }
      ],
      "name": "GovernorInvalidVotingPeriod",
      "type": "error"
    },
    {
      "inputs": [
        {
          "internalType": "uint256",
          "name": "proposalId",
          "type": "uint256"
        }
      ],
      "name": "GovernorNonexistentProposal",
      "type": "error"
    },
    {
      "inputs": [
        {
          "internalType": "uint256",
          "name": "proposalId",
          "type": "uint256"
        }
      ],
      "name": "GovernorNotQueuedProposal",
      "type": "error"
    },
    {
      "inputs": [
        {
          "internalType": "address",
          "name": "account",
          "type": "address"
        }
      ],
      "name": "GovernorOnlyExecutor",
      "type": "error"
    },
    {
      "inputs": [],
      "name": "GovernorQueueNotImplemented",
      "type": "error"
    },
    {
      "inputs": [
        {
          "internalType": "address",
          "name": "proposer",
          "type": "address"
        }
      ],
      "name": "GovernorRestrictedProposer",
      "type": "error"
    },
    {
      "inputs": [
        {
          "internalType": "uint256",
          "name": "proposalId",
          "type": "uint256"
        },
        {
          "internalType": "address",
          "name": "account",
          "type": "address"
        }
      ],
      "name": "GovernorUnableToCancel",
      "type": "error"
    },
    {
      "inputs": [
        {
          "internalType": "uint256",
          "name": "proposalId",
          "type": "uint256"
        },
        {
          "internalType": "enum IGovernor.ProposalState",
          "name": "current",
          "type": "uint8"
        },
        {
          "internalType": "bytes32",
          "name": "expectedStates",
          "type": "bytes32"
        }
      ],
      "name": "GovernorUnexpectedProposalState",
      "type": "error"
    },
    {
      "inputs": [
        {
          "internalType": "address",
          "name": "account",
          "type": "address"
        },
        {
          "internalType": "uint256",
          "name": "currentNonce",
          "type": "uint256"
        }
      ],
      "name": "InvalidAccountNonce",
      "type": "error"
    },
    {
      "inputs": [],
      "name": "InvalidShortString",
      "type": "error"
    },
    {
      "inputs": [
        {
          "internalType": "uint8",
          "name": "bits",
          "type": "uint8"
        },
        {
          "internalType": "uint256",
          "name": "value",
          "type": "uint256"
        }
      ],
      "name": "SafeCastOverflowedUintDowncast",
      "type": "error"
    },
    {
      "inputs": [
        {
          "internalType": "string",
          "name": "str",
          "type": "string"
        }
      ],
      "name": "StringTooLong",
      "type": "error"
    },
    {
      "anonymous": false,
      "inputs": [],
      "name": "EIP712DomainChanged",
      "type": "event"
    },
    {
      "anonymous": false,
      "inputs": [
        {
          "indexed": false,
          "internalType": "uint256",
          "name": "proposalId",
          "type": "uint256"
        }
      ],
      "name": "ProposalCanceled",
      "type": "event"
    },
    {
      "anonymous": false,
      "inputs": [
        {
          "indexed": false,
          "internalType": "uint256",
          "name": "proposalId",
          "type": "uint256"
        },
        {
          "indexed": false,
          "internalType": "address",
          "name": "proposer",
          "type": "address"
        },
        {
          "indexed": false,
          "internalType": "address[]",
          "name": "targets",
          "type": "address[]"
        },
        {
          "indexed": false,
          "internalType": "uint256[]",
          "name": "values",
          "type": "uint256[]"
        },
        {
          "indexed": false,
          "internalType": "string[]",
          "name": "signatures",
          "type": "string[]"
        },
        {
          "indexed": false,
          "internalType": "bytes[]",
          "name": "calldatas",
          "type": "bytes[]"
        },
        {
          "indexed": false,
          "internalType": "uint256",
          "name": "voteStart",
          "type": "uint256"
        },
        {
          "indexed": false,
          "internalType": "uint256",
          "name": "voteEnd",
          "type": "uint256"
        },
        {
          "indexed": false,
          "internalType": "string",
          "name": "description",
          "type": "string"
        }
      ],
      "name": "ProposalCreated",
      "type": "event"
    },
    {
      "anonymous": false,
      "inputs": [
        {
          "indexed": false,
          "internalType": "uint256",
          "name": "proposalId",
          "type": "uint256"
        },
        {
          "indexed": false,
          "internalType": "address",
          "name": "proposer",
          "type": "address"
        },
        {
          "indexed": false,
          "internalType": "string",
          "name": "description",
          "type": "string"
        }
      ],
      "name": "ProposalCreatedByVerifiedUser",
      "type": "event"
    },
    {
      "anonymous": false,
      "inputs": [
        {
          "indexed": false,
          "internalType": "uint256",
          "name": "proposalId",
          "type": "uint256"
        }
      ],
      "name": "ProposalExecuted",
      "type": "event"
    },
    {
      "anonymous": false,
      "inputs": [
        {
          "indexed": false,
          "internalType": "uint256",
          "name": "proposalId",
          "type": "uint256"
        },
        {
          "indexed": false,
          "internalType": "uint256",
          "name": "etaSeconds",
          "type": "uint256"
        }
      ],
      "name": "ProposalQueued",
      "type": "event"
    },
    {
      "anonymous": false,
      "inputs": [
        {
          "indexed": false,
          "internalType": "uint256",
          "name": "oldProposalThreshold",
          "type": "uint256"
        },
        {
          "indexed": false,
          "internalType": "uint256",
          "name": "newProposalThreshold",
          "type": "uint256"
        }
      ],
      "name": "ProposalThresholdSet",
      "type": "event"
    },
    {
      "anonymous": false,
      "inputs": [
        {
          "indexed": false,
          "internalType": "uint256",
          "name": "oldQuorumNumerator",
          "type": "uint256"
        },
        {
          "indexed": false,
          "internalType": "uint256",
          "name": "newQuorumNumerator",
          "type": "uint256"
        }
      ],
      "name": "QuorumNumeratorUpdated",
      "type": "event"
    },
    {
      "anonymous": false,
      "inputs": [
        {
          "indexed": true,
          "internalType": "address",
          "name": "voter",
          "type": "address"
        },
        {
          "indexed": false,
          "internalType": "uint256",
          "name": "proposalId",
          "type": "uint256"
        },
        {
          "indexed": false,
          "internalType": "uint8",
          "name": "support",
          "type": "uint8"
        },
        {
          "indexed": false,
          "internalType": "uint256",
          "name": "weight",
          "type": "uint256"
        },
        {
          "indexed": false,
          "internalType": "string",
          "name": "reason",
          "type": "string"
        }
      ],
      "name": "VoteCast",
      "type": "event"
    },
    {
      "anonymous": false,
      "inputs": [
        {
          "indexed": true,
          "internalType": "address",
          "name": "voter",
          "type": "address"
        },
        {
          "indexed": false,
          "internalType": "uint256",
          "name": "proposalId",
          "type": "uint256"
        },
        {
          "indexed": false,
          "internalType": "uint8",
          "name": "support",
          "type": "uint8"
        },
        {
          "indexed": false,
          "internalType": "uint256",
          "name": "weight",
          "type": "uint256"
        },
        {
          "indexed": false,
          "internalType": "string",
          "name": "reason",
          "type": "string"
        },
        {
          "indexed": false,
          "internalType": "bytes",
          "name": "params",
          "type": "bytes"
        }
      ],
      "name": "VoteCastWithParams",
      "type": "event"
    },
    {
      "anonymous": false,
      "inputs": [
        {
          "indexed": false,
          "internalType": "uint256",
          "name": "oldVotingDelay",
          "type": "uint256"
        },
        {
          "indexed": false,
          "internalType": "uint256",
          "name": "newVotingDelay",
          "type": "uint256"
        }
      ],
      "name": "VotingDelaySet",
      "type": "event"
    },
    {
      "anonymous": false,
      "inputs": [
        {
          "indexed": false,
          "internalType": "uint256",
          "name": "oldVotingPeriod",
          "type": "uint256"
        },
        {
          "indexed": false,
          "internalType": "uint256",
          "name": "newVotingPeriod",
          "type": "uint256"
        }
      ],
      "name": "VotingPeriodSet",
      "type": "event"
    },
    {
      "inputs": [],
      "name": "BALLOT_TYPEHASH",
      "outputs": [
        {
          "internalType": "bytes32",
          "name": "",
          "type": "bytes32"
        }
      ],
      "stateMutability": "view",
      "type": "function"
    },
    {
      "inputs": [],
      "name": "CLOCK_MODE",
      "outputs": [
        {
          "internalType": "string",
          "name": "",
          "type": "string"
        }
      ],
      "stateMutability": "view",
      "type": "function"
    },
    {
      "inputs": [],
      "name": "COUNTING_MODE",
      "outputs": [
        {
          "internalType": "string",
          "name": "",
          "type": "string"
        }
      ],
      "stateMutability": "pure",
      "type": "function"
    },
    {
      "inputs": [],
      "name": "EXTENDED_BALLOT_TYPEHASH",
      "outputs": [
        {
          "internalType": "bytes32",
          "name": "",
          "type": "bytes32"
        }
      ],
      "stateMutability": "view",
      "type": "function"
    },
    {
      "inputs": [
        {
          "internalType": "address[]",
          "name": "targets",
          "type": "address[]"
        },
        {
          "internalType": "uint256[]",
          "name": "values",
          "type": "uint256[]"
        },
        {
          "internalType": "bytes[]",
          "name": "calldatas",
          "type": "bytes[]"
        },
        {
          "internalType": "bytes32",
          "name": "descriptionHash",
          "type": "bytes32"
        }
      ],
      "name": "cancel",
      "outputs": [
        {
          "internalType": "uint256",
          "name": "",
          "type": "uint256"
        }
      ],
      "stateMutability": "nonpayable",
      "type": "function"
    },
    {
      "inputs": [
        {
          "internalType": "uint256",
          "name": "proposalId",
          "type": "uint256"
        },
        {
          "internalType": "uint8",
          "name": "support",
          "type": "uint8"
        }
      ],
      "name": "castVote",
      "outputs": [
        {
          "internalType": "uint256",
          "name": "",
          "type": "uint256"
        }
      ],
      "stateMutability": "nonpayable",
      "type": "function"
    },
    {
      "inputs": [
        {
          "internalType": "uint256",
          "name": "proposalId",
          "type": "uint256"
        },
        {
          "internalType": "uint8",
          "name": "support",
          "type": "uint8"
        },
        {
          "internalType": "address",
          "name": "voter",
          "type": "address"
        },
        {
          "internalType": "bytes",
          "name": "signature",
          "type": "bytes"
        }
      ],
      "name": "castVoteBySig",
      "outputs": [
        {
          "internalType": "uint256",
          "name": "",
          "type": "uint256"
        }
      ],
      "stateMutability": "nonpayable",
      "type": "function"
    },
    {
      "inputs": [
        {
          "internalType": "uint256",
          "name": "proposalId",
          "type": "uint256"
        },
        {
          "internalType": "uint8",
          "name": "support",
          "type": "uint8"
        },
        {
          "internalType": "string",
          "name": "reason",
          "type": "string"
        }
      ],
      "name": "castVoteWithReason",
      "outputs": [
        {
          "internalType": "uint256",
          "name": "",
          "type": "uint256"
        }
      ],
      "stateMutability": "nonpayable",
      "type": "function"
    },
    {
      "inputs": [
        {
          "internalType": "uint256",
          "name": "proposalId",
          "type": "uint256"
        },
        {
          "internalType": "uint8",
          "name": "support",
          "type": "uint8"
        },
        {
          "internalType": "string",
          "name": "reason",
          "type": "string"
        },
        {
          "internalType": "bytes",
          "name": "params",
          "type": "bytes"
        }
      ],
      "name": "castVoteWithReasonAndParams",
      "outputs": [
        {
          "internalType": "uint256",
          "name": "",
          "type": "uint256"
        }
      ],
      "stateMutability": "nonpayable",
      "type": "function"
    },
    {
      "inputs": [
        {
          "internalType": "uint256",
          "name": "proposalId",
          "type": "uint256"
        },
        {
          "internalType": "uint8",
          "name": "support",
          "type": "uint8"
        },
        {
          "internalType": "address",
          "name": "voter",
          "type": "address"
        },
        {
          "internalType": "string",
          "name": "reason",
          "type": "string"
        },
        {
          "internalType": "bytes",
          "name": "params",
          "type": "bytes"
        },
        {
          "internalType": "bytes",
          "name": "signature",
          "type": "bytes"
        }
      ],
      "name": "castVoteWithReasonAndParamsBySig",
      "outputs": [
        {
          "internalType": "uint256",
          "name": "",
          "type": "uint256"
        }
      ],
      "stateMutability": "nonpayable",
      "type": "function"
    },
    {
      "inputs": [],
      "name": "clock",
      "outputs": [
        {
          "internalType": "uint48",
          "name": "",
          "type": "uint48"
        }
      ],
      "stateMutability": "view",
      "type": "function"
    },
    {
      "inputs": [],
      "name": "eip712Domain",
      "outputs": [
        {
          "internalType": "bytes1",
          "name": "fields",
          "type": "bytes1"
        },
        {
          "internalType": "string",
          "name": "name",
          "type": "string"
        },
        {
          "internalType": "string",
          "name": "version",
          "type": "string"
        },
        {
          "internalType": "uint256",
          "name": "chainId",
          "type": "uint256"
        },
        {
          "internalType": "address",
          "name": "verifyingContract",
          "type": "address"
        },
        {
          "internalType": "bytes32",
          "name": "salt",
          "type": "bytes32"
        },
        {
          "internalType": "uint256[]",
          "name": "extensions",
          "type": "uint256[]"
        }
      ],
      "stateMutability": "view",
      "type": "function"
    },
    {
      "inputs": [
        {
          "internalType": "address[]",
          "name": "targets",
          "type": "address[]"
        },
        {
          "internalType": "uint256[]",
          "name": "values",
          "type": "uint256[]"
        },
        {
          "internalType": "bytes[]",
          "name": "calldatas",
          "type": "bytes[]"
        },
        {
          "internalType": "bytes32",
          "name": "descriptionHash",
          "type": "bytes32"
        }
      ],
      "name": "execute",
      "outputs": [
        {
          "internalType": "uint256",
          "name": "",
          "type": "uint256"
        }
      ],
      "stateMutability": "payable",
      "type": "function"
    },
    {
      "inputs": [
        {
          "internalType": "address[]",
          "name": "targets",
          "type": "address[]"
        },
        {
          "internalType": "uint256[]",
          "name": "values",
          "type": "uint256[]"
        },
        {
          "internalType": "bytes[]",
          "name": "calldatas",
          "type": "bytes[]"
        },
        {
          "internalType": "bytes32",
          "name": "descriptionHash",
          "type": "bytes32"
        }
      ],
      "name": "getProposalId",
      "outputs": [
        {
          "internalType": "uint256",
          "name": "",
          "type": "uint256"
        }
      ],
      "stateMutability": "view",
      "type": "function"
    },
    {
      "inputs": [
        {
          "internalType": "address",
          "name": "account",
          "type": "address"
        },
        {
          "internalType": "uint256",
          "name": "timepoint",
          "type": "uint256"
        }
      ],
      "name": "getVotes",
      "outputs": [
        {
          "internalType": "uint256",
          "name": "",
          "type": "uint256"
        }
      ],
      "stateMutability": "view",
      "type": "function"
    },
    {
      "inputs": [
        {
          "internalType": "address",
          "name": "account",
          "type": "address"
        },
        {
          "internalType": "uint256",
          "name": "timepoint",
          "type": "uint256"
        },
        {
          "internalType": "bytes",
          "name": "params",
          "type": "bytes"
        }
      ],
      "name": "getVotesWithParams",
      "outputs": [
        {
          "internalType": "uint256",
          "name": "",
          "type": "uint256"
        }
      ],
      "stateMutability": "view",
      "type": "function"
    },
    {
      "inputs": [
        {
          "internalType": "uint256",
          "name": "proposalId",
          "type": "uint256"
        },
        {
          "internalType": "address",
          "name": "account",
          "type": "address"
        }
      ],
      "name": "hasVoted",
      "outputs": [
        {
          "internalType": "bool",
          "name": "",
          "type": "bool"
        }
      ],
      "stateMutability": "view",
      "type": "function"
    },
    {
      "inputs": [
        {
          "internalType": "address[]",
          "name": "targets",
          "type": "address[]"
        },
        {
          "internalType": "uint256[]",
          "name": "values",
          "type": "uint256[]"
        },
        {
          "internalType": "bytes[]",
          "name": "calldatas",
          "type": "bytes[]"
        },
        {
          "internalType": "bytes32",
          "name": "descriptionHash",
          "type": "bytes32"
        }
      ],
      "name": "hashProposal",
      "outputs": [
        {
          "internalType": "uint256",
          "name": "",
          "type": "uint256"
        }
      ],
      "stateMutability": "pure",
      "type": "function"
    },
    {
      "inputs": [],
      "name": "identityRegistry",
      "outputs": [
        {
          "internalType": "contract IdentityRegistry",
          "name": "",
          "type": "address"
        }
      ],
      "stateMutability": "view",
      "type": "function"
    },
    {
      "inputs": [],
      "name": "name",
      "outputs": [
        {
          "internalType": "string",
          "name": "",
          "type": "string"
        }
      ],
      "stateMutability": "view",
      "type": "function"
    },
    {
      "inputs": [
        {
          "internalType": "address",
          "name": "owner",
          "type": "address"
        }
      ],
      "name": "nonces",
      "outputs": [
        {
          "internalType": "uint256",
          "name": "",
          "type": "uint256"
        }
      ],
      "stateMutability": "view",
      "type": "function"
    },
    {
      "inputs": [
        {
          "internalType": "address",
          "name": "",
          "type": "address"
        },
        {
          "internalType": "address",
          "name": "",
          "type": "address"
        },
        {
          "internalType": "uint256[]",
          "name": "",
          "type": "uint256[]"
        },
        {
          "internalType": "uint256[]",
          "name": "",
          "type": "uint256[]"
        },
        {
          "internalType": "bytes",
          "name": "",
          "type": "bytes"
        }
      ],
      "name": "onERC1155BatchReceived",
      "outputs": [
        {
          "internalType": "bytes4",
          "name": "",
          "type": "bytes4"
        }
      ],
      "stateMutability": "nonpayable",
      "type": "function"
    },
    {
      "inputs": [
        {
          "internalType": "address",
          "name": "",
          "type": "address"
        },
        {
          "internalType": "address",
          "name": "",
          "type": "address"
        },
        {
          "internalType": "uint256",
          "name": "",
          "type": "uint256"
        },
        {
          "internalType": "uint256",
          "name": "",
          "type": "uint256"
        },
        {
          "internalType": "bytes",
          "name": "",
          "type": "bytes"
        }
      ],
      "name": "onERC1155Received",
      "outputs": [
        {
          "internalType": "bytes4",
          "name": "",
          "type": "bytes4"
        }
      ],
      "stateMutability": "nonpayable",
      "type": "function"
    },
    {
      "inputs": [
        {
          "internalType": "address",
          "name": "",
          "type": "address"
        },
        {
          "internalType": "address",
          "name": "",
          "type": "address"
        },
        {
          "internalType": "uint256",
          "name": "",
          "type": "uint256"
        },
        {
          "internalType": "bytes",
          "name": "",
          "type": "bytes"
        }
      ],
      "name": "onERC721Received",
      "outputs": [
        {
          "internalType": "bytes4",
          "name": "",
          "type": "bytes4"
        }
      ],
      "stateMutability": "nonpayable",
      "type": "function"
    },
    {
      "inputs": [
        {
          "internalType": "uint256",
          "name": "proposalId",
          "type": "uint256"
        }
      ],
      "name": "proposalDeadline",
      "outputs": [
        {
          "internalType": "uint256",
          "name": "",
          "type": "uint256"
        }
      ],
      "stateMutability": "view",
      "type": "function"
    },
    {
      "inputs": [
        {
          "internalType": "uint256",
          "name": "proposalId",
          "type": "uint256"
        }
      ],
      "name": "proposalEta",
      "outputs": [
        {
          "internalType": "uint256",
          "name": "",
          "type": "uint256"
        }
      ],
      "stateMutability": "view",
      "type": "function"
    },
    {
      "inputs": [
        {
          "internalType": "uint256",
          "name": "",
          "type": "uint256"
        }
      ],
      "name": "proposalNeedsQueuing",
      "outputs": [
        {
          "internalType": "bool",
          "name": "",
          "type": "bool"
        }
      ],
      "stateMutability": "view",
      "type": "function"
    },
    {
      "inputs": [
        {
          "internalType": "uint256",
          "name": "proposalId",
          "type": "uint256"
        }
      ],
      "name": "proposalProposer",
      "outputs": [
        {
          "internalType": "address",
          "name": "",
          "type": "address"
        }
      ],
      "stateMutability": "view",
      "type": "function"
    },
    {
      "inputs": [
        {
          "internalType": "uint256",
          "name": "proposalId",
          "type": "uint256"
        }
      ],
      "name": "proposalSnapshot",
      "outputs": [
        {
          "internalType": "uint256",
          "name": "",
          "type": "uint256"
        }
      ],
      "stateMutability": "view",
      "type": "function"
    },
    {
      "inputs": [],
      "name": "proposalThreshold",
      "outputs": [
        {
          "internalType": "uint256",
          "name": "",
          "type": "uint256"
        }
      ],
      "stateMutability": "view",
      "type": "function"
    },
    {
      "inputs": [
        {
          "internalType": "uint256",
          "name": "proposalId",
          "type": "uint256"
        }
      ],
      "name": "proposalVotes",
      "outputs": [
        {
          "internalType": "uint256",
          "name": "againstVotes",
          "type": "uint256"
        },
        {
          "internalType": "uint256",
          "name": "forVotes",
          "type": "uint256"
        },
        {
          "internalType": "uint256",
          "name": "abstainVotes",
          "type": "uint256"
        }
      ],
      "stateMutability": "view",
      "type": "function"
    },
    {
      "inputs": [
        {
          "internalType": "address[]",
          "name": "targets",
          "type": "address[]"
        },
        {
          "internalType": "uint256[]",
          "name": "values",
          "type": "uint256[]"
        },
        {
          "internalType": "bytes[]",
          "name": "calldatas",
          "type": "bytes[]"
        },
        {
          "internalType": "string",
          "name": "description",
          "type": "string"
        }
      ],
      "name": "propose",
      "outputs": [
        {
          "internalType": "uint256",
          "name": "",
          "type": "uint256"
        }
      ],
      "stateMutability": "nonpayable",
      "type": "function"
    },
    {
      "inputs": [
        {
          "internalType": "address[]",
          "name": "targets",
          "type": "address[]"
        },
        {
          "internalType": "uint256[]",
          "name": "values",
          "type": "uint256[]"
        },
        {
          "internalType": "bytes[]",
          "name": "calldatas",
          "type": "bytes[]"
        },
        {
          "internalType": "bytes32",
          "name": "descriptionHash",
          "type": "bytes32"
        }
      ],
      "name": "queue",
      "outputs": [
        {
          "internalType": "uint256",
          "name": "",
          "type": "uint256"
        }
      ],
      "stateMutability": "nonpayable",
      "type": "function"
    },
    {
      "inputs": [
        {
          "internalType": "uint256",
          "name": "blockNumber",
          "type": "uint256"
        }
      ],
      "name": "quorum",
      "outputs": [
        {
          "internalType": "uint256",
          "name": "",
          "type": "uint256"
        }
      ],
      "stateMutability": "view",
      "type": "function"
    },
    {
      "inputs": [],
      "name": "quorumDenominator",
      "outputs": [
        {
          "internalType": "uint256",
          "name": "",
          "type": "uint256"
        }
      ],
      "stateMutability": "view",
      "type": "function"
    },
    {
      "inputs": [
        {
          "internalType": "uint256",
          "name": "timepoint",
          "type": "uint256"
        }
      ],
      "name": "quorumNumerator",
      "outputs": [
        {
          "internalType": "uint256",
          "name": "",
          "type": "uint256"
        }
      ],
      "stateMutability": "view",
      "type": "function"
    },
    {
      "inputs": [],
      "name": "quorumNumerator",
      "outputs": [
        {
          "internalType": "uint256",
          "name": "",
          "type": "uint256"
        }
      ],
      "stateMutability": "view",
      "type": "function"
    },
    {
      "inputs": [
        {
          "internalType": "address",
          "name": "target",
          "type": "address"
        },
        {
          "internalType": "uint256",
          "name": "value",
          "type": "uint256"
        },
        {
          "internalType": "bytes",
          "name": "data",
          "type": "bytes"
        }
      ],
      "name": "relay",
      "outputs": [],
      "stateMutability": "payable",
      "type": "function"
    },
    {
      "inputs": [
        {
          "internalType": "uint256",
          "name": "newProposalThreshold",
          "type": "uint256"
        }
      ],
      "name": "setProposalThreshold",
      "outputs": [],
      "stateMutability": "nonpayable",
      "type": "function"
    },
    {
      "inputs": [
        {
          "internalType": "uint48",
          "name": "newVotingDelay",
          "type": "uint48"
        }
      ],
      "name": "setVotingDelay",
      "outputs": [],
      "stateMutability": "nonpayable",
      "type": "function"
    },
    {
      "inputs": [
        {
          "internalType": "uint32",
          "name": "newVotingPeriod",
          "type": "uint32"
        }
      ],
      "name": "setVotingPeriod",
      "outputs": [],
      "stateMutability": "nonpayable",
      "type": "function"
    },
    {
      "inputs": [
        {
          "internalType": "uint256",
          "name": "proposalId",
          "type": "uint256"
        }
      ],
      "name": "state",
      "outputs": [
        {
          "internalType": "enum IGovernor.ProposalState",
          "name": "",
          "type": "uint8"
        }
      ],
      "stateMutability": "view",
      "type": "function"
    },
    {
      "inputs": [
        {
          "internalType": "bytes4",
          "name": "interfaceId",
          "type": "bytes4"
        }
      ],
      "name": "supportsInterface",
      "outputs": [
        {
          "internalType": "bool",
          "name": "",
          "type": "bool"
        }
      ],
      "stateMutability": "view",
      "type": "function"
    },
    {
      "inputs": [],
      "name": "token",
      "outputs": [
        {
          "internalType": "contract IERC5805",
          "name": "",
          "type": "address"
        }
      ],
      "stateMutability": "view",
      "type": "function"
    },
    {
      "inputs": [
        {
          "internalType": "uint256",
          "name": "newQuorumNumerator",
          "type": "uint256"
        }
      ],
      "name": "updateQuorumNumerator",
      "outputs": [],
      "stateMutability": "nonpayable",
      "type": "function"
    },
    {
      "inputs": [],
      "name": "version",
      "outputs": [
        {
          "internalType": "string",
          "name": "",
          "type": "string"
        }
      ],
      "stateMutability": "view",
      "type": "function"
    },
    {
      "inputs": [],
      "name": "votingDelay",
      "outputs": [
        {
          "internalType": "uint256",
          "name": "",
          "type": "uint256"
        }
      ],
      "stateMutability": "view",
      "type": "function"
    },
    {
      "inputs": [],
      "name": "votingPeriod",
      "outputs": [
        {
          "internalType": "uint256",
          "name": "",
          "type": "uint256"
        }
      ],
      "stateMutability": "view",
      "type": "function"
    },
    {
      "stateMutability": "payable",
      "type": "receive"
    }
  ],
  "bytecode": "0x61018060405234801562000011575f80fd5b506040516200486638038062004866833981016040819052620000349162000773565b600482600161c4e05f604051806040016040528060118152602001702332b634b1b7b4b71023b7bb32b93737b960791b8152508062000078620001fc60201b60201c565b62000084825f62000217565b610120526200009581600162000217565b61014052815160208084019190912060e052815190820120610100524660a0526200012260e05161010051604080517f8b73c3c69bb8fe3d512ecc4cf759cc79239f7b179b0ffacaa9a75d522b39400f60208201529081019290925260608201524660808201523060a08201525f9060c00160405160208183030381529060405280519060200120905090565b60805250503060c05260036200013982826200084e565b50620001479050836200024f565b6200015282620002b5565b6200015d8162000356565b5050506001600160a01b031661016052620001788162000397565b506001600160a01b038116620001d55760405162461bcd60e51b815260206004820152601860248201527f496e76616c69642072656769737472792061646472657373000000000000000060448201526064015b60405180910390fd5b600b80546001600160a01b0319166001600160a01b039290921691909117905550620009d3565b6040805180820190915260018152603160f81b602082015290565b5f60208351101562000236576200022e8362000436565b905062000249565b816200024384826200084e565b5060ff90505b92915050565b6008546040805165ffffffffffff928316815291831660208301527fc565b045403dc03c2eea82b81a0465edad9e2e7fc4d97e11421c209da93d7a93910160405180910390a16008805465ffffffffffff191665ffffffffffff92909216919091179055565b8063ffffffff165f03620002df5760405163f1cfbf0560e01b81525f6004820152602401620001cc565b6008546040805163ffffffff66010000000000009093048316815291831660208301527f7e3f7f0708a84de9203036abaa450dccc85ad5ff52f78c170f3edb55cf5e8828910160405180910390a16008805463ffffffff90921666010000000000000263ffffffff60301b19909216919091179055565b60075460408051918252602082018390527fccb45da8d5717e6c4544694297c4ba5cf151d455c9bb0ed4fc7a38411bc05461910160405180910390a1600755565b606480821115620003c65760405163243e544560e01b81526004810183905260248101829052604401620001cc565b5f620003d162000478565b9050620003f6620003e162000493565b620003ec8562000514565b600a91906200054d565b505060408051828152602081018590527f0553476bf02ef2726e8ce5ced78d63e26e602e4a2257b1f559418e24b4633997910160405180910390a1505050565b5f80829050601f8151111562000463578260405163305a27a960e01b8152600401620001cc91906200091a565b8051620004708262000968565b179392505050565b5f62000485600a62000569565b6001600160d01b0316905090565b5f6200049f6101605190565b6001600160a01b03166391ddadf46040518163ffffffff1660e01b8152600401602060405180830381865afa925050508015620004fb575060408051601f3d908101601f19168201909252620004f8918101906200098c565b60015b6200050f576200050a620005b6565b905090565b919050565b5f6001600160d01b0382111562000549576040516306dfcc6560e41b815260d0600482015260248101839052604401620001cc565b5090565b5f806200055c858585620005c2565b915091505b935093915050565b80545f908015620005ad57620005938362000586600184620009b3565b5f91825260209091200190565b54660100000000000090046001600160d01b0316620005af565b5f5b9392505050565b5f6200050a4362000727565b82545f9081908015620006c9575f620005e28762000586600185620009b3565b805490915065ffffffffffff80821691660100000000000090046001600160d01b03169088168211156200062957604051632520601d60e01b815260040160405180910390fd5b8765ffffffffffff168265ffffffffffff16036200066757825465ffffffffffff1666010000000000006001600160d01b03891602178355620006ba565b6040805180820190915265ffffffffffff808a1682526001600160d01b03808a1660208085019182528d54600181018f555f8f815291909120945191519092166601000000000000029216919091179101555b94508593506200056192505050565b50506040805180820190915265ffffffffffff80851682526001600160d01b0380851660208085019182528854600181018a555f8a815291822095519251909316660100000000000002919093161792019190915590508162000561565b5f65ffffffffffff82111562000549576040516306dfcc6560e41b81526030600482015260248101839052604401620001cc565b6001600160a01b038116811462000770575f80fd5b50565b5f806040838503121562000785575f80fd5b825162000792816200075b565b6020840151909250620007a5816200075b565b809150509250929050565b634e487b7160e01b5f52604160045260245ffd5b600181811c90821680620007d957607f821691505b602082108103620007f857634e487b7160e01b5f52602260045260245ffd5b50919050565b601f8211156200084957805f5260205f20601f840160051c81016020851015620008255750805b601f840160051c820191505b8181101562000846575f815560010162000831565b50505b505050565b81516001600160401b038111156200086a576200086a620007b0565b62000882816200087b8454620007c4565b84620007fe565b602080601f831160018114620008b8575f8415620008a05750858301515b5f19600386901b1c1916600185901b17855562000912565b5f85815260208120601f198616915b82811015620008e857888601518255948401946001909101908401620008c7565b50858210156200090657878501515f19600388901b60f8161c191681555b505060018460011b0185555b505050505050565b5f602080835283518060208501525f5b8181101562000948578581018301518582016040015282016200092a565b505f604082860101526040601f19601f8301168501019250505092915050565b80516020808301519190811015620007f8575f1960209190910360031b1b16919050565b5f602082840312156200099d575f80fd5b815165ffffffffffff81168114620005af575f80fd5b818103818111156200024957634e487b7160e01b5f52601160045260245ffd5b60805160a05160c05160e05161010051610120516101405161016051613e1b62000a4b5f395f818161097f01528181610deb0152818161120601528181611bc10152611db201525f611b0501525f611ad901525f61280701525f6127df01525f61273a01525f61276401525f61278e0152613e1b5ff3fe60806040526004361061028e575f3560e01c80637d5e81e211610155578063bc197c81116100be578063e540d01d11610078578063e540d01d146108ca578063eb9019d4146108e9578063ece40cc114610908578063f23a6e6114610927578063f8ce560a14610952578063fc0c546a14610971575f80fd5b8063bc197c81146107d6578063c01f9e3714610801578063c28bc2fa14610820578063c59057e414610833578063dd4e2ba514610852578063deaaa7cc14610897575f80fd5b80639a802a6d1161010f5780639a802a6d1461071b578063a7713a701461073a578063a8f8a6681461074e578063a9a952941461076d578063ab58fb8e1461078c578063b58131b0146107c2575f80fd5b80637d5e81e2146106445780637ecebe001461066357806384b0196e146106975780638ff262e3146106be57806391ddadf4146106dd57806397c3d33414610708575f80fd5b80633e4f49e6116101f757806356781388116101b1578063567813881461058a5780635b8d0e0d146105a95780635f398a14146105c857806360c4247f146105e757806379051887146106065780637b3c71d314610625575f80fd5b80633e4f49e61461048057806343859632146104ac578063452115d6146104f45780634bf5d7e914610513578063544ffc9c1461052757806354fd4d5014610561575f80fd5b8063150b7a0211610248578063150b7a02146103a5578063160cbed7146103e85780632656227d146104075780632d63f6931461041a5780632fe3e261146104395780633932abb11461046c575f80fd5b806301ffc9a71461029b57806302a251a3146102cf57806306f3f9e6146102fa57806306fdde0314610319578063134e18f41461033a578063143489d014610371575f80fd5b3661029757005b005b5f80fd5b3480156102a6575f80fd5b506102ba6102b5366004612ea1565b6109a3565b60405190151581526020015b60405180910390f35b3480156102da575f80fd5b50600854600160301b900463ffffffff165b6040519081526020016102c6565b348015610305575f80fd5b50610295610314366004612ec8565b610a14565b348015610324575f80fd5b5061032d610a28565b6040516102c69190612f2c565b348015610345575f80fd5b50600b54610359906001600160a01b031681565b6040516001600160a01b0390911681526020016102c6565b34801561037c575f80fd5b5061035961038b366004612ec8565b5f908152600460205260409020546001600160a01b031690565b3480156103b0575f80fd5b506103cf6103bf366004613017565b630a85bd0160e11b949350505050565b6040516001600160e01b031990911681526020016102c6565b3480156103f3575f80fd5b506102ec6104023660046131e0565b610ab8565b6102ec6104153660046131e0565b610af6565b348015610425575f80fd5b506102ec610434366004612ec8565b610c1e565b348015610444575f80fd5b506102ec7f3e83946653575f9a39005e1545185629e92736b7528ab20ca3816f315424a81181565b348015610477575f80fd5b506102ec610c3e565b34801561048b575f80fd5b5061049f61049a366004612ec8565b610c50565b6040516102c6919061329d565b3480156104b7575f80fd5b506102ba6104c63660046132ab565b5f8281526009602090815260408083206001600160a01b038516845260030190915290205460ff1692915050565b3480156104ff575f80fd5b506102ec61050e3660046131e0565b610d86565b34801561051e575f80fd5b5061032d610de7565b348015610532575f80fd5b50610546610541366004612ec8565b610ea7565b604080519384526020840192909252908201526060016102c6565b34801561056c575f80fd5b506040805180820190915260018152603160f81b602082015261032d565b348015610595575f80fd5b506102ec6105a43660046132e5565b610ecc565b3480156105b4575f80fd5b506102ec6105c336600461334a565b610ef3565b3480156105d3575f80fd5b506102ec6105e23660046133fa565b610fb0565b3480156105f2575f80fd5b506102ec610601366004612ec8565b610ff8565b348015610611575f80fd5b5061029561062036600461348a565b611004565b348015610630575f80fd5b506102ec61063f3660046134a5565b611015565b34801561064f575f80fd5b506102ec61065e3660046134fa565b611065565b34801561066e575f80fd5b506102ec61067d3660046135a6565b6001600160a01b03165f9081526002602052604090205490565b3480156106a2575f80fd5b506106ab611169565b6040516102c697969594939291906135f9565b3480156106c9575f80fd5b506102ec6106d8366004613668565b6111ab565b3480156106e8575f80fd5b506106f1611203565b60405165ffffffffffff90911681526020016102c6565b348015610713575f80fd5b5060646102ec565b348015610726575f80fd5b506102ec6107353660046136b3565b61128a565b348015610745575f80fd5b506102ec6112a0565b348015610759575f80fd5b506102ec6107683660046131e0565b6112b9565b348015610778575f80fd5b506102ba610787366004612ec8565b505f90565b348015610797575f80fd5b506102ec6107a6366004612ec8565b5f9081526004602052604090206001015465ffffffffffff1690565b3480156107cd575f80fd5b506102ec6112c6565b3480156107e1575f80fd5b506103cf6107f0366004613705565b63bc197c8160e01b95945050505050565b34801561080c575f80fd5b506102ec61081b366004612ec8565b6112d0565b61029561082e36600461378d565b611312565b34801561083e575f80fd5b506102ec61084d3660046131e0565b61138e565b34801561085d575f80fd5b506040805180820190915260208082527f737570706f72743d627261766f2671756f72756d3d666f722c6162737461696e9082015261032d565b3480156108a2575f80fd5b506102ec7ff2aad550cf55f045cb27e9c559f9889fdfb6e6cdaa032301d6ea397784ae51d781565b3480156108d5575f80fd5b506102956108e43660046137ca565b6113c7565b3480156108f4575f80fd5b506102ec6109033660046137ed565b6113d8565b348015610913575f80fd5b50610295610922366004612ec8565b6113f7565b348015610932575f80fd5b506103cf610941366004613815565b63f23a6e6160e01b95945050505050565b34801561095d575f80fd5b506102ec61096c366004612ec8565b611408565b34801561097c575f80fd5b507f0000000000000000000000000000000000000000000000000000000000000000610359565b5f6001600160e01b031982166366defe7760e11b14806109d357506001600160e01b031982166332a2ad4360e11b145b806109ee57506001600160e01b03198216630271189760e51b145b80610a0957506301ffc9a760e01b6001600160e01b03198316145b92915050565b905090565b610a1c611412565b610a2581611449565b50565b606060038054610a3790613874565b80601f0160208091040260200160405190810160405280929190818152602001828054610a6390613874565b8015610aae5780601f10610a8557610100808354040283529160200191610aae565b820191905f5260205f20905b815481529060010190602001808311610a9157829003601f168201915b5050505050905090565b5f80610ac6868686866112b9565b9050610adb81610ad660046114de565b611500565b505f604051634844252360e11b815260040160405180910390fd5b5f80610b04868686866112b9565b9050610b2481610b1460056114de565b610b1e60046114de565b17611500565b505f818152600460205260409020805460ff60f01b1916600160f01b17905530610b4b3090565b6001600160a01b031614610bd4575f5b8651811015610bd257306001600160a01b0316878281518110610b8057610b806138ac565b60200260200101516001600160a01b031603610bca57610bca858281518110610bab57610bab6138ac565b602002602001015180519060200120600561153d90919063ffffffff16565b600101610b5b565b505b610be1818787878761159e565b6040518181527f712ae1383f79ac853f8d882153778e0260ef8f03b504e2866e0593e04d2b291f906020015b60405180910390a195945050505050565b5f90815260046020526040902054600160a01b900465ffffffffffff1690565b5f610a0f60085465ffffffffffff1690565b5f818152600460205260408120805460ff600160f01b8204811691600160f81b9004168115610c8457506007949350505050565b8015610c9557506002949350505050565b5f610c9f86610c1e565b9050805f03610cc957604051636ad0607560e01b8152600481018790526024015b60405180910390fd5b5f610cd2611203565b65ffffffffffff169050808210610cef57505f9695505050505050565b5f610cf9886112d0565b9050818110610d1057506001979650505050505050565b610d1988611673565b1580610d3857505f888152600960205260409020805460019091015411155b15610d4b57506003979650505050505050565b5f8881526004602052604090206001015465ffffffffffff165f03610d7857506004979650505050505050565b506005979650505050505050565b5f80610d94868686866112b9565b905033610da182826116a9565b610dd057604051638fe5d8a960e01b8152600481018390526001600160a01b0382166024820152604401610cc0565b610ddc878787876116ee565b979650505050505050565b60607f00000000000000000000000000000000000000000000000000000000000000006001600160a01b0316634bf5d7e96040518163ffffffff1660e01b81526004015f60405180830381865afa925050508015610e6657506040513d5f823e601f3d908101601f19168201604052610e6391908101906138c0565b60015b610ea2575060408051808201909152601d81527f6d6f64653d626c6f636b6e756d6265722666726f6d3d64656661756c74000000602082015290565b919050565b5f818152600960205260409020805460018201546002909201549091905b9193909250565b5f80339050610eeb84828560405180602001604052805f81525061179d565b949350505050565b5f610f3988888888888080601f0160208091040260200160405190810160405280939291908181526020018383808284375f920191909152508a92508991506117be9050565b610f61576040516394ab6c0760e01b81526001600160a01b0387166004820152602401610cc0565b610fa488878988888080601f0160208091040260200160405190810160405280939291908181526020018383808284375f920191909152508a925061188b915050565b98975050505050505050565b5f80339050610ddc87828888888080601f0160208091040260200160405190810160405280939291908181526020018383808284375f920191909152508a925061188b915050565b5f610a09600a83611969565b61100c611412565b610a25816119b6565b5f8033905061105b86828787878080601f0160208091040260200160405190810160405280939291908181526020018383808284375f9201919091525061179d92505050565b9695505050505050565b600b5460405163b9209e3360e01b81523360048201525f916001600160a01b03169063b9209e3390602401602060405180830381865afa1580156110ab573d5f803e3d5ffd5b505050506040513d601f19601f820116820180604052508101906110cf9190613928565b6111275760405162461bcd60e51b8152602060048201526024808201527f4d75737420626520766572696669656420746f206372656174652070726f706f60448201526373616c7360e01b6064820152608401610cc0565b5f61113486868686611a1c565b90507fa0d5941eb1e8d15040c590d34d945b1fcddeae95dc5436648025b1d3c0b77f9a813385604051610c0d93929190613947565b5f6060805f805f606061117a611ad2565b611182611afe565b604080515f80825260208201909252600f60f81b9b939a50919850469750309650945092509050565b5f6111b885858585611b2b565b6111e0576040516394ab6c0760e01b81526001600160a01b0384166004820152602401610cc0565b6111fa85848660405180602001604052805f81525061179d565b95945050505050565b5f7f00000000000000000000000000000000000000000000000000000000000000006001600160a01b03166391ddadf46040518163ffffffff1660e01b8152600401602060405180830381865afa92505050801561127e575060408051601f3d908101601f1916820190925261127b91810190613970565b60015b610ea257610a0f611bb4565b5f611296848484611bbe565b90505b9392505050565b5f6112ab600a611c51565b6001600160d01b0316905090565b5f6111fa8585858561138e565b5f610a0f60075490565b5f8181526004602052604081205461130490600160d01b810463ffffffff1690600160a01b900465ffffffffffff1661399f565b65ffffffffffff1692915050565b61131a611412565b5f80856001600160a01b03168585856040516113379291906139c5565b5f6040518083038185875af1925050503d805f8114611371576040519150601f19603f3d011682016040523d82523d5f602084013e611376565b606091505b50915091506113858282611c95565b50505050505050565b5f848484846040516020016113a69493929190613a64565b60408051601f19818403018152919052805160209091012095945050505050565b6113cf611412565b610a2581611cb1565b5f61129983836113f260408051602081019091525f815290565b611bbe565b6113ff611412565b610a2581611d4d565b5f610a0982611d8e565b303314611434576040516347096e4760e01b8152336004820152602401610cc0565b565b806114416005611e2b565b036114365750565b6064808211156114765760405163243e544560e01b81526004810183905260248101829052604401610cc0565b5f61147f6112a0565b905061149e61148c611203565b61149585611e98565b600a9190611ecf565b505060408051828152602081018590527f0553476bf02ef2726e8ce5ced78d63e26e602e4a2257b1f559418e24b4633997910160405180910390a1505050565b5f8160078111156114f1576114f1613269565b600160ff919091161b92915050565b5f8061150b84610c50565b90505f83611518836114de565b1603611299578381846040516331b75e4d60e01b8152600401610cc093929190613aae565b81546001600160801b03600160801b820481169181166001830190911603611569576115696041611ee9565b6001600160801b038082165f90815260018086016020526040909120939093558354919092018216600160801b029116179055565b5f5b845181101561166b575f808683815181106115bd576115bd6138ac565b60200260200101516001600160a01b03168684815181106115e0576115e06138ac565b60200260200101518685815181106115fa576115fa6138ac565b602002602001015160405161160f9190613ad0565b5f6040518083038185875af1925050503d805f8114611649576040519150601f19603f3d011682016040523d82523d5f602084013e61164e565b606091505b509150915061165d8282611c95565b5050508060010190506115a0565b505050505050565b5f818152600960205260408120600281015460018201546116949190613aeb565b6116a061096c85610c1e565b11159392505050565b5f806116b484610c50565b60078111156116c5576116c5613269565b1480156112995750505f91825260046020526040909120546001600160a01b0391821691161490565b5f806116fc868686866112b9565b905061174a8161170c60076114de565b61171660066114de565b61172060026114de565b600161172d600782613afe565b611738906002613bf7565b6117429190613c05565b181818611500565b505f818152600460205260409081902080546001600160f81b0316600160f81b179055517f789cf55be980739dad1d0699b93b58e806b51c9d96619bfa8fe0a28abaa7b30c90610c0d9083815260200190565b5f6111fa858585856117b960408051602081019091525f815290565b61188b565b5f610ddc856118857f3e83946653575f9a39005e1545185629e92736b7528ab20ca3816f315424a8118a8a8a6118108c6001600160a01b03165f90815260026020526040902080546001810190915590565b8b516020808e01919091208c518d83012060405161186a98979695949301968752602087019590955260ff9390931660408601526001600160a01b03919091166060850152608084015260a083015260c082015260e00190565b60405160208183030381529060405280519060200120611efa565b84611f26565b5f61189a86610ad660016114de565b505f6118af866118a989610c1e565b85611bbe565b90505f6118bf8888888588611f96565b905083515f0361191557866001600160a01b03167fb8e138887d0aa13bab447e82de9d5c1777041ecd21ca36ba824ff1e6c07ddda4898884896040516119089493929190613c18565b60405180910390a2610ddc565b866001600160a01b03167fe2babfbac5889a709b63bb7f598b324e08bc5a4fb9ec647fb3cbc9ec07eb87128988848989604051611956959493929190613c3f565b60405180910390a2979650505050505050565b5f805f61197585612092565b9250925050838265ffffffffffff1611156119a25761199d611996856120ea565b869061211c565b6119a4565b805b6001600160d01b031695945050505050565b6008546040805165ffffffffffff928316815291831660208301527fc565b045403dc03c2eea82b81a0465edad9e2e7fc4d97e11421c209da93d7a93910160405180910390a16008805465ffffffffffff191665ffffffffffff92909216919091179055565b5f33611a2881846121be565b611a505760405163d9b3955760e01b81526001600160a01b0382166004820152602401610cc0565b5f611a596112c6565b90508015611ac5575f611a87836001611a70611203565b611a7a9190613c78565b65ffffffffffff166113d8565b905081811015611ac357604051636121770b60e11b81526001600160a01b03841660048201526024810182905260448101839052606401610cc0565b505b610ddc8787878786612243565b6060610a0f7f00000000000000000000000000000000000000000000000000000000000000005f61245d565b6060610a0f7f0000000000000000000000000000000000000000000000000000000000000000600161245d565b5f6111fa836118857ff2aad550cf55f045cb27e9c559f9889fdfb6e6cdaa032301d6ea397784ae51d7888888611b7d8a6001600160a01b03165f90815260026020526040902080546001810190915590565b60408051602081019690965285019390935260ff90911660608401526001600160a01b0316608083015260a082015260c00161186a565b5f610a0f436120ea565b5f7f0000000000000000000000000000000000000000000000000000000000000000604051630748d63560e31b81526001600160a01b038681166004830152602482018690529190911690633a46b1a890604401602060405180830381865afa158015611c2d573d5f803e3d5ffd5b505050506040513d601f19601f820116820180604052508101906112969190613c97565b80545f908015611c8d57611c7783611c6a600184613c05565b5f91825260209091200190565b54600160301b90046001600160d01b0316611299565b5f9392505050565b606082611caa57611ca582612506565b610a09565b5080610a09565b8063ffffffff165f03611cd95760405163f1cfbf0560e01b81525f6004820152602401610cc0565b6008546040805163ffffffff600160301b9093048316815291831660208301527f7e3f7f0708a84de9203036abaa450dccc85ad5ff52f78c170f3edb55cf5e8828910160405180910390a16008805463ffffffff909216600160301b0269ffffffff00000000000019909216919091179055565b60075460408051918252602082018390527fccb45da8d5717e6c4544694297c4ba5cf151d455c9bb0ed4fc7a38411bc05461910160405180910390a1600755565b604051632394e7a360e21b8152600481018290525f90610a09906001600160a01b037f00000000000000000000000000000000000000000000000000000000000000001690638e539e8c90602401602060405180830381865afa158015611df7573d5f803e3d5ffd5b505050506040513d601f19601f82011682018060405250810190611e1b9190613c97565b611e2484610ff8565b606461252e565b80545f906001600160801b0380821691600160801b9004168103611e5357611e536031611ee9565b6001600160801b038181165f908152600185810160205260408220805492905585546fffffffffffffffffffffffffffffffff19169301909116919091179092555090565b5f6001600160d01b03821115611ecb576040516306dfcc6560e41b815260d0600482015260248101839052604401610cc0565b5090565b5f80611edc8585856125de565b915091505b935093915050565b634e487b715f52806020526024601cfd5b5f610a09611f0661272e565b8360405161190160f01b8152600281019290925260228201526042902090565b5f836001600160a01b03163b5f03611f84575f80611f448585612857565b5090925090505f816003811115611f5d57611f5d613269565b148015611f7b5750856001600160a01b0316826001600160a01b0316145b92505050611299565b611f8f8484846128a0565b9050611299565b5f8581526009602090815260408083206001600160a01b03881684526003810190925282205460ff1615611fe8576040516371c6af4960e01b81526001600160a01b0387166004820152602401610cc0565b6001600160a01b0386165f9081526003820160205260409020805460ff1916600117905560ff85166120315783815f015f8282546120269190613aeb565b909155506120879050565b5f1960ff86160161204f5783816001015f8282546120269190613aeb565b60011960ff86160161206e5783816002015f8282546120269190613aeb565b6040516303599be160e11b815260040160405180910390fd5b509195945050505050565b80545f90819081908082036120b0575f805f93509350935050610ec5565b5f6120c086611c6a600185613c05565b546001955065ffffffffffff81169450600160301b90046001600160d01b03169250610ec5915050565b5f65ffffffffffff821115611ecb576040516306dfcc6560e41b81526030600482015260248101839052604401610cc0565b81545f9081816005811115612178575f61213584612976565b61213f9085613c05565b5f8881526020902090915081015465ffffffffffff908116908716101561216857809150612176565b612173816001613aeb565b92505b505b5f61218587878585612ace565b905080156121b25761219c87611c6a600184613c05565b54600160301b90046001600160d01b0316610ddc565b5f979650505050505050565b80515f9060348110156121d5576001915050610a09565b60131981840101516001600160b01b03198116692370726f706f7365723d60b01b1461220657600192505050610a09565b5f8061221686602a860386612b2d565b91509150811580610ddc5750866001600160a01b0316816001600160a01b03161494505050505092915050565b5f61225786868686805190602001206112b9565b90508451865114158061226c57508351865114155b8061227657508551155b156122ab57855184518651604051630447b05d60e41b8152600481019390935260248301919091526044820152606401610cc0565b5f81815260046020526040902054600160a01b900465ffffffffffff16156122f457806122d782610c50565b6040516331b75e4d60e01b8152610cc09291905f90600401613aae565b5f6122fd610c3e565b612305611203565b65ffffffffffff166123179190613aeb565b90505f61233160085463ffffffff600160301b9091041690565b5f84815260046020526040902080546001600160a01b0319166001600160a01b038716178155909150612363836120ea565b815465ffffffffffff91909116600160a01b0265ffffffffffff60a01b1990911617815561239082612bd6565b815463ffffffff91909116600160d01b0263ffffffff60d01b1990911617815588517f7d84a6263ae0d98d3329bd7b46bb4e8d6f98cd35a7adb45c274c8b7fd5ebd5e090859087908c908c906001600160401b038111156123f3576123f3612f54565b60405190808252806020026020018201604052801561242657816020015b60608152602001906001900390816124115790505b508c896124338a82613aeb565b8e60405161244999989796959493929190613cae565b60405180910390a150505095945050505050565b606060ff83146124775761247083612c06565b9050610a09565b81805461248390613874565b80601f01602080910402602001604051908101604052809291908181526020018280546124af90613874565b80156124fa5780601f106124d1576101008083540402835291602001916124fa565b820191905f5260205f20905b8154815290600101906020018083116124dd57829003601f168201915b50505050509050610a09565b80511561251557805160208201fd5b60405163d6bda27560e01b815260040160405180910390fd5b5f805f61253b8686612c43565b91509150815f0361255f5783818161255557612555613d83565b0492505050611299565b818411612576576125766003851502601118611ee9565b5f848688095f868103871696879004966002600389028118808a02820302808a02820302808a02820302808a02820302808a02820302808a02909103029181900381900460010185841190960395909502919093039390930492909217029150509392505050565b82545f90819080156126d4575f6125fa87611c6a600185613c05565b805490915065ffffffffffff80821691600160301b90046001600160d01b031690881682111561263d57604051632520601d60e01b815260040160405180910390fd5b8765ffffffffffff168265ffffffffffff160361267657825465ffffffffffff16600160301b6001600160d01b038916021783556126c6565b6040805180820190915265ffffffffffff808a1682526001600160d01b03808a1660208085019182528d54600181018f555f8f81529190912094519151909216600160301b029216919091179101555b9450859350611ee192505050565b50506040805180820190915265ffffffffffff80851682526001600160d01b0380851660208085019182528854600181018a555f8a815291822095519251909316600160301b029190931617920191909155905081611ee1565b5f306001600160a01b037f00000000000000000000000000000000000000000000000000000000000000001614801561278657507f000000000000000000000000000000000000000000000000000000000000000046145b156127b057507f000000000000000000000000000000000000000000000000000000000000000090565b610a0f604080517f8b73c3c69bb8fe3d512ecc4cf759cc79239f7b179b0ffacaa9a75d522b39400f60208201527f0000000000000000000000000000000000000000000000000000000000000000918101919091527f000000000000000000000000000000000000000000000000000000000000000060608201524660808201523060a08201525f9060c00160405160208183030381529060405280519060200120905090565b5f805f835160410361288e576020840151604085015160608601515f1a61288088828585612c5f565b955095509550505050612899565b505081515f91506002905b9250925092565b5f805f856001600160a01b031685856040516024016128c0929190613d97565b60408051601f198184030181529181526020820180516001600160e01b0316630b135d3f60e11b179052516128f59190613ad0565b5f60405180830381855afa9150503d805f811461292d576040519150601f19603f3d011682016040523d82523d5f602084013e612932565b606091505b509150915081801561294657506020815110155b801561105b57508051630b135d3f60e11b9061296b9083016020908101908401613c97565b149695505050505050565b5f60018211612983575090565b816001600160801b821061299c5760809190911c9060401b5b6801000000000000000082106129b75760409190911c9060201b5b64010000000082106129ce5760209190911c9060101b5b6201000082106129e35760109190911c9060081b5b61010082106129f75760089190911c9060041b5b60108210612a0a5760049190911c9060021b5b60048210612a165760011b5b600302600190811c90818581612a2e57612a2e613d83565b048201901c90506001818581612a4657612a46613d83565b048201901c90506001818581612a5e57612a5e613d83565b048201901c90506001818581612a7657612a76613d83565b048201901c90506001818581612a8e57612a8e613d83565b048201901c90506001818581612aa657612aa6613d83565b048201901c9050612ac5818581612abf57612abf613d83565b04821190565b90039392505050565b5f5b81831015612b25575f612ae38484612d27565b5f8781526020902090915065ffffffffffff86169082015465ffffffffffff161115612b1157809250612b1f565b612b1c816001613aeb565b93505b50612ad0565b509392505050565b5f808451831180612b3d57508284115b15612b4c57505f905080611ee1565b5f612b58856001613aeb565b84118015612b80575061060f60f31b612b748787016020015190565b6001600160f01b031916145b90505f612b908215156002613daf565b612b9b906028613aeb565b905080612ba88787613c05565b03612bc9575f80612bba898989612d41565b9096509450611ee19350505050565b5f80935093505050611ee1565b5f63ffffffff821115611ecb576040516306dfcc6560e41b81526020600482015260248101839052604401610cc0565b60605f612c1283612e02565b6040805160208082528183019092529192505f91906020820181803683375050509182525060208101929092525090565b5f805f1983850993909202808410938190039390930393915050565b5f80807f7fffffffffffffffffffffffffffffff5d576e7357a4501ddfe92f46681b20a0841115612c9857505f91506003905082612d1d565b604080515f808252602082018084528a905260ff891692820192909252606081018790526080810186905260019060a0016020604051602081039080840390855afa158015612ce9573d5f803e3d5ffd5b5050604051601f1901519150506001600160a01b038116612d1457505f925060019150829050612d1d565b92505f91508190505b9450945094915050565b5f612d356002848418613dc6565b61129990848416613aeb565b5f808481612d50866001613aeb565b85118015612d78575061060f60f31b612d6c8388016020015190565b6001600160f01b031916145b90505f612d888215156002613daf565b90505f80612d96838a613aeb565b90505b87811015612df1575f612db7612db28784016020015190565b612e29565b9050600f8160ff161115612dd6575f8097509750505050505050611ee1565b612de1601084613daf565b60ff909116019150600101612d99565b506001999098509650505050505050565b5f60ff8216601f811115610a0957604051632cd44ac360e21b815260040160405180910390fd5b5f60f882901c602f81118015612e425750603a8160ff16105b15612e5057602f1901610a09565b60608160ff16118015612e66575060678160ff16105b15612e745760561901610a09565b60408160ff16118015612e8a575060478160ff16105b15612e985760361901610a09565b5060ff92915050565b5f60208284031215612eb1575f80fd5b81356001600160e01b031981168114611299575f80fd5b5f60208284031215612ed8575f80fd5b5035919050565b5f5b83811015612ef9578181015183820152602001612ee1565b50505f910152565b5f8151808452612f18816020860160208601612edf565b601f01601f19169290920160200192915050565b602081525f6112996020830184612f01565b80356001600160a01b0381168114610ea2575f80fd5b634e487b7160e01b5f52604160045260245ffd5b604051601f8201601f191681016001600160401b0381118282101715612f9057612f90612f54565b604052919050565b5f6001600160401b03821115612fb057612fb0612f54565b50601f01601f191660200190565b5f612fd0612fcb84612f98565b612f68565b9050828152838383011115612fe3575f80fd5b828260208301375f602084830101529392505050565b5f82601f830112613008575f80fd5b61129983833560208501612fbe565b5f805f806080858703121561302a575f80fd5b61303385612f3e565b935061304160208601612f3e565b92506040850135915060608501356001600160401b03811115613062575f80fd5b61306e87828801612ff9565b91505092959194509250565b5f6001600160401b0382111561309257613092612f54565b5060051b60200190565b5f82601f8301126130ab575f80fd5b813560206130bb612fcb8361307a565b8083825260208201915060208460051b8701019350868411156130dc575f80fd5b602086015b848110156130ff576130f281612f3e565b83529183019183016130e1565b509695505050505050565b5f82601f830112613119575f80fd5b81356020613129612fcb8361307a565b8083825260208201915060208460051b87010193508684111561314a575f80fd5b602086015b848110156130ff578035835291830191830161314f565b5f82601f830112613175575f80fd5b81356020613185612fcb8361307a565b82815260059290921b840181019181810190868411156131a3575f80fd5b8286015b848110156130ff5780356001600160401b038111156131c4575f80fd5b6131d28986838b0101612ff9565b8452509183019183016131a7565b5f805f80608085870312156131f3575f80fd5b84356001600160401b0380821115613209575f80fd5b6132158883890161309c565b9550602087013591508082111561322a575f80fd5b6132368883890161310a565b9450604087013591508082111561324b575f80fd5b5061325887828801613166565b949793965093946060013593505050565b634e487b7160e01b5f52602160045260245ffd5b6008811061329957634e487b7160e01b5f52602160045260245ffd5b9052565b60208101610a09828461327d565b5f80604083850312156132bc575f80fd5b823591506132cc60208401612f3e565b90509250929050565b803560ff81168114610ea2575f80fd5b5f80604083850312156132f6575f80fd5b823591506132cc602084016132d5565b5f8083601f840112613316575f80fd5b5081356001600160401b0381111561332c575f80fd5b602083019150836020828501011115613343575f80fd5b9250929050565b5f805f805f805f60c0888a031215613360575f80fd5b87359650613370602089016132d5565b955061337e60408901612f3e565b945060608801356001600160401b0380821115613399575f80fd5b6133a58b838c01613306565b909650945060808a01359150808211156133bd575f80fd5b6133c98b838c01612ff9565b935060a08a01359150808211156133de575f80fd5b506133eb8a828b01612ff9565b91505092959891949750929550565b5f805f805f6080868803121561340e575f80fd5b8535945061341e602087016132d5565b935060408601356001600160401b0380821115613439575f80fd5b61344589838a01613306565b9095509350606088013591508082111561345d575f80fd5b5061346a88828901612ff9565b9150509295509295909350565b65ffffffffffff81168114610a25575f80fd5b5f6020828403121561349a575f80fd5b813561129981613477565b5f805f80606085870312156134b8575f80fd5b843593506134c8602086016132d5565b925060408501356001600160401b038111156134e2575f80fd5b6134ee87828801613306565b95989497509550505050565b5f805f806080858703121561350d575f80fd5b84356001600160401b0380821115613523575f80fd5b61352f8883890161309c565b95506020870135915080821115613544575f80fd5b6135508883890161310a565b94506040870135915080821115613565575f80fd5b61357188838901613166565b93506060870135915080821115613586575f80fd5b508501601f81018713613597575f80fd5b61306e87823560208401612fbe565b5f602082840312156135b6575f80fd5b61129982612f3e565b5f815180845260208085019450602084015f5b838110156135ee578151875295820195908201906001016135d2565b509495945050505050565b60ff60f81b8816815260e060208201525f61361760e0830189612f01565b82810360408401526136298189612f01565b606084018890526001600160a01b038716608085015260a0840186905283810360c0850152905061365a81856135bf565b9a9950505050505050505050565b5f805f806080858703121561367b575f80fd5b8435935061368b602086016132d5565b925061369960408601612f3e565b915060608501356001600160401b03811115613062575f80fd5b5f805f606084860312156136c5575f80fd5b6136ce84612f3e565b92506020840135915060408401356001600160401b038111156136ef575f80fd5b6136fb86828701612ff9565b9150509250925092565b5f805f805f60a08688031215613719575f80fd5b61372286612f3e565b945061373060208701612f3e565b935060408601356001600160401b038082111561374b575f80fd5b61375789838a0161310a565b9450606088013591508082111561376c575f80fd5b61377889838a0161310a565b9350608088013591508082111561345d575f80fd5b5f805f80606085870312156137a0575f80fd5b6137a985612f3e565b93506020850135925060408501356001600160401b038111156134e2575f80fd5b5f602082840312156137da575f80fd5b813563ffffffff81168114611299575f80fd5b5f80604083850312156137fe575f80fd5b61380783612f3e565b946020939093013593505050565b5f805f805f60a08688031215613829575f80fd5b61383286612f3e565b945061384060208701612f3e565b9350604086013592506060860135915060808601356001600160401b03811115613868575f80fd5b61346a88828901612ff9565b600181811c9082168061388857607f821691505b6020821081036138a657634e487b7160e01b5f52602260045260245ffd5b50919050565b634e487b7160e01b5f52603260045260245ffd5b5f602082840312156138d0575f80fd5b81516001600160401b038111156138e5575f80fd5b8201601f810184136138f5575f80fd5b8051613903612fcb82612f98565b818152856020838501011115613917575f80fd5b6111fa826020830160208601612edf565b5f60208284031215613938575f80fd5b81518015158114611299575f80fd5b8381526001600160a01b03831660208201526060604082018190525f906111fa90830184612f01565b5f60208284031215613980575f80fd5b815161129981613477565b634e487b7160e01b5f52601160045260245ffd5b65ffffffffffff8181168382160190808211156139be576139be61398b565b5092915050565b818382375f9101908152919050565b5f815180845260208085019450602084015f5b838110156135ee5781516001600160a01b0316875295820195908201906001016139e7565b5f8282518085526020808601955060208260051b840101602086015f5b84811015613a5757601f19868403018952613a45838351612f01565b98840198925090830190600101613a29565b5090979650505050505050565b608081525f613a7660808301876139d4565b8281036020840152613a8881876135bf565b90508281036040840152613a9c8186613a0c565b91505082606083015295945050505050565b83815260608101613ac2602083018561327d565b826040830152949350505050565b5f8251613ae1818460208701612edf565b9190910192915050565b80820180821115610a0957610a0961398b565b60ff8181168382160190811115610a0957610a0961398b565b600181815b80851115613b5157815f1904821115613b3757613b3761398b565b80851615613b4457918102915b93841c9390800290613b1c565b509250929050565b5f82613b6757506001610a09565b81613b7357505f610a09565b8160018114613b895760028114613b9357613baf565b6001915050610a09565b60ff841115613ba457613ba461398b565b50506001821b610a09565b5060208310610133831016604e8410600b8410161715613bd2575081810a610a09565b613bdc8383613b17565b805f1904821115613bef57613bef61398b565b029392505050565b5f61129960ff841683613b59565b81810381811115610a0957610a0961398b565b84815260ff84166020820152826040820152608060608201525f61105b6080830184612f01565b85815260ff8516602082015283604082015260a060608201525f613c6660a0830185612f01565b8281036080840152610fa48185612f01565b65ffffffffffff8281168282160390808211156139be576139be61398b565b5f60208284031215613ca7575f80fd5b5051919050565b5f6101208b8352602060018060a01b038c1681850152816040850152613cd68285018c6139d4565b91508382036060850152613cea828b6135bf565b915083820360808501528189518084528284019150828160051b850101838c015f5b83811015613d3a57601f19878403018552613d28838351612f01565b94860194925090850190600101613d0c565b505086810360a0880152613d4e818c613a0c565b9450505050508560c08401528460e0840152828103610100840152613d738185612f01565b9c9b505050505050505050505050565b634e487b7160e01b5f52601260045260245ffd5b828152604060208201525f6112966040830184612f01565b8082028115828204841417610a0957610a0961398b565b5f82613de057634e487b7160e01b5f52601260045260245ffd5b50049056fea2646970667358221220aa865050464499b4cdba6a421832c9f4ce0099099d5b8a4f0dacd8b2444f95b564736f6c63430008180033",
  "linkReferences": {},
  "deployedLinkReferences": {}
}