{
  "_format": "hh-sol-artifact-1",
  "contractName": "EventTicket",
  "sourceName": "contracts/EventTicket.sol",
  "abi": [
    {
      "inputs": [
        {
          "internalType": "address",
          "name": "_felicoinToken",
          "type": "address"
        },
        {
          "internalType": "address",
          "name": "_identityRegistry",
          "type": "address"
        },
        {
          "internalType": "address",
          "name": "_treasury",
          "type": "address"
        }
      ],
      "stateMutability": "nonpayable",
      "type": "constructor"
    },
    {
      "inputs": [],
      "name": "ERC721EnumerableForbiddenBatchMint",
      "type": "error"
    },
    {
      "inputs": [
        {
          "internalType": "address",
          "name": "sender",
          "type": "address"
        },
        {
          "internalType": "uint256",
          "name": "tokenId",
          "type": "uint256"
        },
        {
          "internalType": "address",
          "name": "owner",
          "type": "address"
        }
      ],
      "name": "ERC721IncorrectOwner",
      "type": "error"
    },
    {
      "inputs": [
        {
          "internalType": "address",
          "name": "operator",
          "type": "address"
        },
        {
          "internalType": "uint256",
          "name": "tokenId",
          "type": "uint256"
        }
      ],
      "name": "ERC721InsufficientApproval",
      "type": "error"
    },
    {
      "inputs": [
        {
          "internalType": "address",
          "name": "approver",
          "type": "address"
        }
      ],
      "name": "ERC721InvalidApprover",
      "type": "error"
    },
    {
      "inputs": [
        {
          "internalType": "address",
          "name": "operator",
          "type": "address"
        }
      ],
      "name": "ERC721InvalidOperator",
      "type": "error"
    },
    {
      "inputs": [
        {
          "internalType": "address",
          "name": "owner",
          "type": "address"
        }
      ],
      "name": "ERC721InvalidOwner",
      "type": "error"
    },
    {
      "inputs": [
        {
          "internalType": "address",
          "name": "receiver",
          "type": "address"
        }
      ],
      "name": "ERC721InvalidReceiver",
      "type": "error"
    },
    {
      "inputs": [
        {
          "internalType": "address",
          "name": "sender",
          "type": "address"
        }
      ],
      "name": "ERC721InvalidSender",
      "type": "error"
    },
    {
      "inputs": [
        {
          "internalType": "uint256",
          "name": "tokenId",
          "type": "uint256"
        }
      ],
      "name": "ERC721NonexistentToken",
      "type": "error"
    },
    {
      "inputs": [
        {
          "internalType": "address",
          "name": "owner",
          "type": "address"
        },
        {
          "internalType": "uint256",
          "name": "index",
          "type": "uint256"
        }
      ],
      "name": "ERC721OutOfBoundsIndex",
      "type": "error"
    },
    {
      "inputs": [
        {
          "internalType": "address",
          "name": "owner",
          "type": "address"
        }
      ],
      "name": "OwnableInvalidOwner",
      "type": "error"
    },
    {
      "inputs": [
        {
          "internalType": "address",
          "name": "account",
          "type": "address"
        }
      ],
      "name": "OwnableUnauthorizedAccount",
      "type": "error"
    },
    {
      "anonymous": false,
      "inputs": [
        {
          "indexed": true,
          "internalType": "address",
          "name": "owner",
          "type": "address"
        },
        {
          "indexed": true,
          "internalType": "address",
          "name": "approved",
          "type": "address"
        },
        {
          "indexed": true,
          "internalType": "uint256",
          "name": "tokenId",
          "type": "uint256"
        }
      ],
      "name": "Approval",
      "type": "event"
    },
    {
      "anonymous": false,
      "inputs": [
        {
          "indexed": true,
          "internalType": "address",
          "name": "owner",
          "type": "address"
        },
        {
          "indexed": true,
          "internalType": "address",
          "name": "operator",
          "type": "address"
        },
        {
          "indexed": false,
          "internalType": "bool",
          "name": "approved",
          "type": "bool"
        }
      ],
      "name": "ApprovalForAll",
      "type": "event"
    },
    {
      "anonymous": false,
      "inputs": [
        {
          "indexed": false,
          "internalType": "uint256",
          "name": "_fromTokenId",
          "type": "uint256"
        },
        {
          "indexed": false,
          "internalType": "uint256",
          "name": "_toTokenId",
          "type": "uint256"
        }
      ],
      "name": "BatchMetadataUpdate",
      "type": "event"
    },
    {
      "anonymous": false,
      "inputs": [
        {
          "indexed": true,
          "internalType": "uint256",
          "name": "eventId",
          "type": "uint256"
        },
        {
          "indexed": false,
          "internalType": "string",
          "name": "name",
          "type": "string"
        },
        {
          "indexed": false,
          "internalType": "uint256",
          "name": "ticketPrice",
          "type": "uint256"
        },
        {
          "indexed": false,
          "internalType": "uint256",
          "name": "maxTickets",
          "type": "uint256"
        },
        {
          "indexed": false,
          "internalType": "uint256",
          "name": "eventDate",
          "type": "uint256"
        }
      ],
      "name": "EventCreated",
      "type": "event"
    },
    {
      "anonymous": false,
      "inputs": [
        {
          "indexed": true,
          "internalType": "uint256",
          "name": "eventId",
          "type": "uint256"
        },
        {
          "indexed": false,
          "internalType": "bool",
          "name": "isActive",
          "type": "bool"
        }
      ],
      "name": "EventStatusChanged",
      "type": "event"
    },
    {
      "anonymous": false,
      "inputs": [
        {
          "indexed": false,
          "internalType": "uint256",
          "name": "_tokenId",
          "type": "uint256"
        }
      ],
      "name": "MetadataUpdate",
      "type": "event"
    },
    {
      "anonymous": false,
      "inputs": [
        {
          "indexed": true,
          "internalType": "address",
          "name": "previousOwner",
          "type": "address"
        },
        {
          "indexed": true,
          "internalType": "address",
          "name": "newOwner",
          "type": "address"
        }
      ],
      "name": "OwnershipTransferred",
      "type": "event"
    },
    {
      "anonymous": false,
      "inputs": [
        {
          "indexed": true,
          "internalType": "uint256",
          "name": "tokenId",
          "type": "uint256"
        },
        {
          "indexed": true,
          "internalType": "uint256",
          "name": "eventId",
          "type": "uint256"
        },
        {
          "indexed": true,
          "internalType": "address",
          "name": "buyer",
          "type": "address"
        },
        {
          "indexed": false,
          "internalType": "uint256",
          "name": "price",
          "type": "uint256"
        },
        {
          "indexed": false,
          "internalType": "uint256",
          "name": "timestamp",
          "type": "uint256"
        }
      ],
      "name": "TicketPurchased",
      "type": "event"
    },
    {
      "anonymous": false,
      "inputs": [
        {
          "indexed": true,
          "internalType": "address",
          "name": "from",
          "type": "address"
        },
        {
          "indexed": true,
          "internalType": "address",
          "name": "to",
          "type": "address"
        },
        {
          "indexed": true,
          "internalType": "uint256",
          "name": "tokenId",
          "type": "uint256"
        }
      ],
      "name": "Transfer",
      "type": "event"
    },
    {
      "inputs": [
        {
          "internalType": "address",
          "name": "to",
          "type": "address"
        },
        {
          "internalType": "uint256",
          "name": "tokenId",
          "type": "uint256"
        }
      ],
      "name": "approve",
      "outputs": [],
      "stateMutability": "nonpayable",
      "type": "function"
    },
    {
      "inputs": [
        {
          "internalType": "address",
          "name": "owner",
          "type": "address"
        }
      ],
      "name": "balanceOf",
      "outputs": [
        {
          "internalType": "uint256",
          "name": "",
          "type": "uint256"
        }
      ],
      "stateMutability": "view",
      "type": "function"
    },
    {
      "inputs": [
        {
          "internalType": "uint256",
          "name": "eventId",
          "type": "uint256"
        }
      ],
      "name": "buyTicket",
      "outputs": [
        {
          "internalType": "uint256",
          "name": "",
          "type": "uint256"
        }
      ],
      "stateMutability": "nonpayable",
      "type": "function"
    },
    {
      "inputs": [
        {
          "internalType": "string",
          "name": "name",
          "type": "string"
        },
        {
          "internalType": "uint256",
          "name": "ticketPrice",
          "type": "uint256"
        },
        {
          "internalType": "uint256",
          "name": "maxTickets",
          "type": "uint256"
        },
        {
          "internalType": "uint256",
          "name": "eventDate",
          "type": "uint256"
        },
        {
          "internalType": "bool",
          "name": "requiresVerification",
          "type": "bool"
        },
        {
          "internalType": "string",
          "name": "metadataURI",
          "type": "string"
        }
      ],
      "name": "createEvent",
      "outputs": [
        {
          "internalType": "uint256",
          "name": "",
          "type": "uint256"
        }
      ],
      "stateMutability": "nonpayable",
      "type": "function"
    },
    {
      "inputs": [
        {
          "internalType": "uint256",
          "name": "",
          "type": "uint256"
        }
      ],
      "name": "events",
      "outputs": [
        {
          "internalType": "string",
          "name": "name",
          "type": "string"
        },
        {
          "internalType": "uint256",
          "name": "ticketPrice",
          "type": "uint256"
        },
        {
          "internalType": "uint256",
          "name": "maxTickets",
          "type": "uint256"
        },
        {
          "internalType": "uint256",
          "name": "ticketsSold",
          "type": "uint256"
        },
        {
          "internalType": "uint256",
          "name": "eventDate",
          "type": "uint256"
        },
        {
          "internalType": "bool",
          "name": "isActive",
          "type": "bool"
        },
        {
          "internalType": "bool",
          "name": "requiresVerification",
          "type": "bool"
        },
        {
          "internalType": "string",
          "name": "metadataURI",
          "type": "string"
        }
      ],
      "stateMutability": "view",
      "type": "function"
    },
    {
      "inputs": [],
      "name": "felicoinToken",
      "outputs": [
        {
          "internalType": "contract IERC20",
          "name": "",
          "type": "address"
        }
      ],
      "stateMutability": "view",
      "type": "function"
    },
    {
      "inputs": [
        {
          "internalType": "uint256",
          "name": "tokenId",
          "type": "uint256"
        }
      ],
      "name": "getApproved",
      "outputs": [
        {
          "internalType": "address",
          "name": "",
          "type": "address"
        }
      ],
      "stateMutability": "view",
      "type": "function"
    },
    {
      "inputs": [
        {
          "internalType": "uint256",
          "name": "eventId",
          "type": "uint256"
        }
      ],
      "name": "getEvent",
      "outputs": [
        {
          "internalType": "string",
          "name": "name",
          "type": "string"
        },
        {
          "internalType": "uint256",
          "name": "ticketPrice",
          "type": "uint256"
        },
        {
          "internalType": "uint256",
          "name": "maxTickets",
          "type": "uint256"
        },
        {
          "internalType": "uint256",
          "name": "ticketsSold",
          "type": "uint256"
        },
        {
          "internalType": "uint256",
          "name": "eventDate",
          "type": "uint256"
        },
        {
          "internalType": "bool",
          "name": "isActive",
          "type": "bool"
        },
        {
          "internalType": "bool",
          "name": "requiresVerification",
          "type": "bool"
        }
      ],
      "stateMutability": "view",
      "type": "function"
    },
    {
      "inputs": [
        {
          "internalType": "address",
          "name": "user",
          "type": "address"
        },
        {
          "internalType": "uint256",
          "name": "eventId",
          "type": "uint256"
        }
      ],
      "name": "hasTicketForEvent",
      "outputs": [
        {
          "internalType": "bool",
          "name": "",
          "type": "bool"
        }
      ],
      "stateMutability": "view",
      "type": "function"
    },
    {
      "inputs": [],
      "name": "identityRegistry",
      "outputs": [
        {
          "internalType": "contract IdentityRegistry",
          "name": "",
          "type": "address"
        }
      ],
      "stateMutability": "view",
      "type": "function"
    },
    {
      "inputs": [
        {
          "internalType": "address",
          "name": "owner",
          "type": "address"
        },
        {
          "internalType": "address",
          "name": "operator",
          "type": "address"
        }
      ],
      "name": "isApprovedForAll",
      "outputs": [
        {
          "internalType": "bool",
          "name": "",
          "type": "bool"
        }
      ],
      "stateMutability": "view",
      "type": "function"
    },
    {
      "inputs": [],
      "name": "name",
      "outputs": [
        {
          "internalType": "string",
          "name": "",
          "type": "string"
        }
      ],
      "stateMutability": "view",
      "type": "function"
    },
    {
      "inputs": [],
      "name": "nextEventId",
      "outputs": [
        {
          "internalType": "uint256",
          "name": "",
          "type": "uint256"
        }
      ],
      "stateMutability": "view",
      "type": "function"
    },
    {
      "inputs": [],
      "name": "owner",
      "outputs": [
        {
          "internalType": "address",
          "name": "",
          "type": "address"
        }
      ],
      "stateMutability": "view",
      "type": "function"
    },
    {
      "inputs": [
        {
          "internalType": "uint256",
          "name": "tokenId",
          "type": "uint256"
        }
      ],
      "name": "ownerOf",
      "outputs": [
        {
          "internalType": "address",
          "name": "",
          "type": "address"
        }
      ],
      "stateMutability": "view",
      "type": "function"
    },
    {
      "inputs": [],
      "name": "renounceOwnership",
      "outputs": [],
      "stateMutability": "nonpayable",
      "type": "function"
    },
    {
      "inputs": [
        {
          "internalType": "address",
          "name": "from",
          "type": "address"
        },
        {
          "internalType": "address",
          "name": "to",
          "type": "address"
        },
        {
          "internalType": "uint256",
          "name": "tokenId",
          "type": "uint256"
        }
      ],
      "name": "safeTransferFrom",
      "outputs": [],
      "stateMutability": "nonpayable",
      "type": "function"
    },
    {
      "inputs": [
        {
          "internalType": "address",
          "name": "from",
          "type": "address"
        },
        {
          "internalType": "address",
          "name": "to",
          "type": "address"
        },
        {
          "internalType": "uint256",
          "name": "tokenId",
          "type": "uint256"
        },
        {
          "internalType": "bytes",
          "name": "data",
          "type": "bytes"
        }
      ],
      "name": "safeTransferFrom",
      "outputs": [],
      "stateMutability": "nonpayable",
      "type": "function"
    },
    {
      "inputs": [
        {
          "internalType": "address",
          "name": "operator",
          "type": "address"
        },
        {
          "internalType": "bool",
          "name": "approved",
          "type": "bool"
        }
      ],
      "name": "setApprovalForAll",
      "outputs": [],
      "stateMutability": "nonpayable",
      "type": "function"
    },
    {
      "inputs": [
        {
          "internalType": "uint256",
          "name": "eventId",
          "type": "uint256"
        },
        {
          "internalType": "bool",
          "name": "isActive",
          "type": "bool"
        }
      ],
      "name": "setEventStatus",
      "outputs": [],
      "stateMutability": "nonpayable",
      "type": "function"
    },
    {
      "inputs": [
        {
          "internalType": "bytes4",
          "name": "interfaceId",
          "type": "bytes4"
        }
      ],
      "name": "supportsInterface",
      "outputs": [
        {
          "internalType": "bool",
          "name": "",
          "type": "bool"
        }
      ],
      "stateMutability": "view",
      "type": "function"
    },
    {
      "inputs": [],
      "name": "symbol",
      "outputs": [
        {
          "internalType": "string",
          "name": "",
          "type": "string"
        }
      ],
      "stateMutability": "view",
      "type": "function"
    },
    {
      "inputs": [
        {
          "internalType": "uint256",
          "name": "",
          "type": "uint256"
        }
      ],
      "name": "ticketToEvent",
      "outputs": [
        {
          "internalType": "uint256",
          "name": "",
          "type": "uint256"
        }
      ],
      "stateMutability": "view",
      "type": "function"
    },
    {
      "inputs": [
        {
          "internalType": "uint256",
          "name": "index",
          "type": "uint256"
        }
      ],
      "name": "tokenByIndex",
      "outputs": [
        {
          "internalType": "uint256",
          "name": "",
          "type": "uint256"
        }
      ],
      "stateMutability": "view",
      "type": "function"
    },
    {
      "inputs": [
        {
          "internalType": "address",
          "name": "owner",
          "type": "address"
        },
        {
          "internalType": "uint256",
          "name": "index",
          "type": "uint256"
        }
      ],
      "name": "tokenOfOwnerByIndex",
      "outputs": [
        {
          "internalType": "uint256",
          "name": "",
          "type": "uint256"
        }
      ],
      "stateMutability": "view",
      "type": "function"
    },
    {
      "inputs": [
        {
          "internalType": "uint256",
          "name": "tokenId",
          "type": "uint256"
        }
      ],
      "name": "tokenURI",
      "outputs": [
        {
          "internalType": "string",
          "name": "",
          "type": "string"
        }
      ],
      "stateMutability": "view",
      "type": "function"
    },
    {
      "inputs": [],
      "name": "totalSupply",
      "outputs": [
        {
          "internalType": "uint256",
          "name": "",
          "type": "uint256"
        }
      ],
      "stateMutability": "view",
      "type": "function"
    },
    {
      "inputs": [
        {
          "internalType": "address",
          "name": "from",
          "type": "address"
        },
        {
          "internalType": "address",
          "name": "to",
          "type": "address"
        },
        {
          "internalType": "uint256",
          "name": "tokenId",
          "type": "uint256"
        }
      ],
      "name": "transferFrom",
      "outputs": [],
      "stateMutability": "nonpayable",
      "type": "function"
    },
    {
      "inputs": [
        {
          "internalType": "address",
          "name": "newOwner",
          "type": "address"
        }
      ],
      "name": "transferOwnership",
      "outputs": [],
      "stateMutability": "nonpayable",
      "type": "function"
    },
    {
      "inputs": [],
      "name": "treasury",
      "outputs": [
        {
          "internalType": "address",
          "name": "",
          "type": "address"
        }
      ],
      "stateMutability": "view",
      "type": "function"
    },
    {
      "inputs": [
        {
          "internalType": "address",
          "name": "newTreasury",
          "type": "address"
        }
      ],
      "name": "updateTreasury",
      "outputs": [],
      "stateMutability": "nonpayable",
      "type": "function"
    }
  ],
  "bytecode": "0x60806040526001600e5560016011553480156200001a575f80fd5b506040516200294d3803806200294d8339810160408190526200003d91620002a5565b336040518060400160405280601681526020017f46656c6973746f7265204576656e74205469636b6574000000000000000000008152506040518060400160405280600381526020016211915560ea1b815250815f9081620000a091906200038a565b506001620000af82826200038a565b5050506001600160a01b038116620000e157604051631e4fbdf760e01b81525f60048201526024015b60405180910390fd5b620000ec8162000238565b506001600160a01b038316620001455760405162461bcd60e51b815260206004820152601560248201527f496e76616c696420746f6b656e206164647265737300000000000000000000006044820152606401620000d8565b6001600160a01b0382166200019d5760405162461bcd60e51b815260206004820152601860248201527f496e76616c6964207265676973747279206164647265737300000000000000006044820152606401620000d8565b6001600160a01b038116620001f55760405162461bcd60e51b815260206004820152601860248201527f496e76616c6964207472656173757279206164647265737300000000000000006044820152606401620000d8565b600c80546001600160a01b039485166001600160a01b031991821617909155600d8054938516938216939093179092556012805491909316911617905562000456565b600b80546001600160a01b038381166001600160a01b0319831681179093556040519116919082907f8be0079c531659141344cd1fd0a4f28419497f9722a3daafe3b4186f6b6457e0905f90a35050565b80516001600160a01b0381168114620002a0575f80fd5b919050565b5f805f60608486031215620002b8575f80fd5b620002c38462000289565b9250620002d36020850162000289565b9150620002e36040850162000289565b90509250925092565b634e487b7160e01b5f52604160045260245ffd5b600181811c908216806200031557607f821691505b6020821081036200033457634e487b7160e01b5f52602260045260245ffd5b50919050565b601f8211156200038557805f5260205f20601f840160051c81016020851015620003615750805b601f840160051c820191505b8181101562000382575f81556001016200036d565b50505b505050565b81516001600160401b03811115620003a657620003a6620002ec565b620003be81620003b7845462000300565b846200033a565b602080601f831160018114620003f4575f8415620003dc5750858301515b5f19600386901b1c1916600185901b1785556200044e565b5f85815260208120601f198616915b82811015620004245788860151825594840194600190910190840162000403565b50858210156200044257878501515f19600388901b60f8161c191681555b505060018460011b0185555b505050505050565b6124e980620004645f395ff3fe608060405234801561000f575f80fd5b50600436106101dc575f3560e01c80636d1884e0116101095780639f9d903a1161009e578063db03b5cb1161006e578063db03b5cb14610416578063e985e9c514610429578063f2fde38b1461043c578063f6ac04da1461044f575f80fd5b80639f9d903a146103d4578063a22cb465146103dd578063b88d4fde146103f0578063c87b56dd14610403575f80fd5b8063836b035a116100d9578063836b035a146103955780638da5cb5b146103a857806395d89b41146103b957806395dad48a146103c1575f80fd5b80636d1884e01461034157806370a0823114610367578063715018a61461037a5780637f51bb1f14610382575f80fd5b806323b872dd1161017f5780634f6ccce71161014f5780634f6ccce7146102f557806361d027b3146103085780636352211e1461031b57806367dd74ca1461032e575f80fd5b806323b872dd146102a95780632f745c59146102bc57806342842e0e146102cf5780634343efc6146102e2575f80fd5b8063095ea7b3116101ba578063095ea7b3146102485780630b7914301461025d578063134e18f41461028457806318160ddd14610297575f80fd5b806301ffc9a7146101e057806306fdde0314610208578063081812fc1461021d575b5f80fd5b6101f36101ee366004611e3b565b61046e565b60405190151581526020015b60405180910390f35b61021061047e565b6040516101ff9190611ea3565b61023061022b366004611eb5565b61050d565b6040516001600160a01b0390911681526020016101ff565b61025b610256366004611ee7565b610534565b005b61027061026b366004611eb5565b610543565b6040516101ff989796959493929190611f0f565b600d54610230906001600160a01b031681565b6009545b6040519081526020016101ff565b61025b6102b7366004611f6d565b61069c565b61029b6102ca366004611ee7565b61072a565b61025b6102dd366004611f6d565b61078d565b600c54610230906001600160a01b031681565b61029b610303366004611eb5565b6107ac565b601254610230906001600160a01b031681565b610230610329366004611eb5565b610801565b61029b61033c366004611eb5565b61080b565b61035461034f366004611eb5565b610bc9565b6040516101ff9796959493929190611fa6565b61029b610375366004611fed565b610d97565b61025b610ddc565b61025b610390366004611fed565b610def565b61025b6103a3366004612013565b610e6f565b600b546001600160a01b0316610230565b610210610f24565b6101f36103cf366004611ee7565b610f33565b61029b60115481565b61025b6103eb366004612041565b610f8c565b61025b6103fe3660046120f2565b610f97565b610210610411366004611eb5565b610faf565b61029b610424366004612187565b610fba565b6101f3610437366004612215565b6111d5565b61025b61044a366004611fed565b611202565b61029b61045d366004611eb5565b60106020525f908152604090205481565b5f6104788261123f565b92915050565b60605f805461048c90612246565b80601f01602080910402602001604051908101604052809291908181526020018280546104b890612246565b80156105035780601f106104da57610100808354040283529160200191610503565b820191905f5260205f20905b8154815290600101906020018083116104e657829003601f168201915b5050505050905090565b5f61051782611263565b505f828152600460205260409020546001600160a01b0316610478565b61053f82823361129b565b5050565b600f6020525f908152604090208054819061055d90612246565b80601f016020809104026020016040519081016040528092919081815260200182805461058990612246565b80156105d45780601f106105ab576101008083540402835291602001916105d4565b820191905f5260205f20905b8154815290600101906020018083116105b757829003601f168201915b5050506001840154600285015460038601546004870154600588015460068901805498999598949750929550909360ff808316946101009093041692909161061b90612246565b80601f016020809104026020016040519081016040528092919081815260200182805461064790612246565b80156106925780601f1061066957610100808354040283529160200191610692565b820191905f5260205f20905b81548152906001019060200180831161067557829003601f168201915b5050505050905088565b6001600160a01b0382166106ca57604051633250574960e11b81525f60048201526024015b60405180910390fd5b5f6106d68383336112a8565b9050836001600160a01b0316816001600160a01b031614610724576040516364283d7b60e01b81526001600160a01b03808616600483015260248201849052821660448201526064016106c1565b50505050565b5f61073483610d97565b82106107655760405163295f44f760e21b81526001600160a01b0384166004820152602481018390526044016106c1565b506001600160a01b03919091165f908152600760209081526040808320938352929052205490565b6107a783838360405180602001604052805f815250610f97565b505050565b5f6107b660095490565b82106107de5760405163295f44f760e21b81525f6004820152602481018390526044016106c1565b600982815481106107f1576107f161227e565b905f5260205f2001549050919050565b5f61047882611263565b5f818152600f602052604081206005810154339060ff166108615760405162461bcd60e51b815260206004820152601060248201526f4576656e74206e6f742061637469766560801b60448201526064016106c1565b81600201548260030154106108a35760405162461bcd60e51b815260206004820152600860248201526714dbdb19081bdd5d60c21b60448201526064016106c1565b428260040154116108e95760405162461bcd60e51b815260206004820152601060248201526f115d995b9d081a185cc81c185cdcd95960821b60448201526064016106c1565b6005820154610100900460ff16156109b357600d5460405163b9209e3360e01b81526001600160a01b0383811660048301529091169063b9209e3390602401602060405180830381865afa158015610943573d5f803e3d5ffd5b505050506040513d601f19601f820116820180604052508101906109679190612292565b6109b35760405162461bcd60e51b815260206004820152601e60248201527f4964656e7469747920766572696669636174696f6e207265717569726564000060448201526064016106c1565b600182015415610a7e57600c5460125460018401546040516323b872dd60e01b81526001600160a01b038581166004830152928316602482015260448101919091529116906323b872dd906064016020604051808303815f875af1158015610a1d573d5f803e3d5ffd5b505050506040513d601f19601f82011682018060405250810190610a419190612292565b610a7e5760405162461bcd60e51b815260206004820152600e60248201526d14185e5b595b9d0819985a5b195960921b60448201526064016106c1565b600e80545f9182610a8e836122c1565b919050559050610a9e82826112bc565b5f836006018054610aae90612246565b90501115610b4a57610b4a81846006018054610ac990612246565b80601f0160208091040260200160405190810160405280929190818152602001828054610af590612246565b8015610b405780601f10610b1757610100808354040283529160200191610b40565b820191905f5260205f20905b815481529060010190602001808311610b2357829003601f168201915b50505050506112d5565b5f81815260106020526040812086905560038401805491610b6a836122c1565b9190505550816001600160a01b031685827fa33fd280cea731ca97b5809baf2022a90a86ce6f6cc8a8b6223a1d18f058289c866001015442604051610bb9929190918252602082015260400190565b60405180910390a4949350505050565b60605f805f805f805f600f5f8a81526020019081526020015f20604051806101000160405290815f82018054610bfe90612246565b80601f0160208091040260200160405190810160405280929190818152602001828054610c2a90612246565b8015610c755780601f10610c4c57610100808354040283529160200191610c75565b820191905f5260205f20905b815481529060010190602001808311610c5857829003601f168201915b505050918352505060018201546020820152600282015460408201526003820154606082015260048201546080820152600582015460ff808216151560a084015261010090910416151560c082015260068201805460e090920191610cd990612246565b80601f0160208091040260200160405190810160405280929190818152602001828054610d0590612246565b8015610d505780601f10610d2757610100808354040283529160200191610d50565b820191905f5260205f20905b815481529060010190602001808311610d3357829003601f168201915b5050505050815250509050805f015181602001518260400151836060015184608001518560a001518660c00151975097509750975097509750975050919395979092949650565b5f6001600160a01b038216610dc1576040516322718ad960e21b81525f60048201526024016106c1565b506001600160a01b03165f9081526003602052604090205490565b610de4611324565b610ded5f611351565b565b610df7611324565b6001600160a01b038116610e4d5760405162461bcd60e51b815260206004820152601860248201527f496e76616c69642074726561737572792061646472657373000000000000000060448201526064016106c1565b601280546001600160a01b0319166001600160a01b0392909216919091179055565b610e77611324565b5f828152600f6020526040902060020154610ecb5760405162461bcd60e51b8152602060048201526014602482015273115d995b9d08191bd95cc81b9bdd08195e1a5cdd60621b60448201526064016106c1565b5f828152600f6020908152604091829020600501805460ff1916841515908117909155915191825283917f69a1d308f60ea7e097a1ac547a3a0776b9c2e05d34084ce48e044df8f45e7cb2910160405180910390a25050565b60606001805461048c90612246565b5f80610f3e84610d97565b90505f5b81811015610f82575f610f55868361072a565b5f81815260106020526040902054909150859003610f795760019350505050610478565b50600101610f42565b505f949350505050565b61053f3383836113a2565b610fa284848461069c565b6107243385858585611440565b606061047882611568565b5f610fc3611324565b5f87511161100a5760405162461bcd60e51b81526020600482015260146024820152734e616d652063616e6e6f7420626520656d70747960601b60448201526064016106c1565b5f85116110595760405162461bcd60e51b815260206004820152601760248201527f4d6178207469636b657473206d757374206265203e203000000000000000000060448201526064016106c1565b4284116110a85760405162461bcd60e51b815260206004820152601c60248201527f4576656e742064617465206d75737420626520696e206675747572650000000060448201526064016106c1565b601180545f91826110b8836122c1565b9091555060408051610100810182528a815260208082018b90528183018a90525f60608301819052608083018a9052600160a084015288151560c084015260e08301889052848152600f9091529190912081519293509091819061111c908261231d565b506020820151600182015560408201516002820155606082015160038201556080820151600482015560a082015160058201805460c085015115156101000261ff00199315159390931661ffff199091161791909117905560e08201516006820190611188908261231d565b50905050807f72deeb9ef57375133dcdf3dd5ba7a069d5bb62851a22ce62f0f3bbd7a4343aef898989896040516111c294939291906123d9565b60405180910390a2979650505050505050565b6001600160a01b039182165f90815260056020908152604080832093909416825291909152205460ff1690565b61120a611324565b6001600160a01b03811661123357604051631e4fbdf760e01b81525f60048201526024016106c1565b61123c81611351565b50565b5f6001600160e01b0319821663780e9d6360e01b148061047857506104788261166b565b5f818152600260205260408120546001600160a01b03168061047857604051637e27328960e01b8152600481018490526024016106c1565b6107a7838383600161168f565b5f6112b4848484611793565b949350505050565b61053f828260405180602001604052805f81525061185e565b5f8281526006602052604090206112ec828261231d565b506040518281527ff8e1a15aba9398e019f0b49df1a4fde98ee17ae345cb5f6b5e2c27f5033e8ce79060200160405180910390a15050565b600b546001600160a01b03163314610ded5760405163118cdaa760e01b81523360048201526024016106c1565b600b80546001600160a01b038381166001600160a01b0319831681179093556040519116919082907f8be0079c531659141344cd1fd0a4f28419497f9722a3daafe3b4186f6b6457e0905f90a35050565b6001600160a01b0382166113d457604051630b61174360e31b81526001600160a01b03831660048201526024016106c1565b6001600160a01b038381165f81815260056020908152604080832094871680845294825291829020805460ff191686151590811790915591519182527f17307eab39ab6107e8899845ad3d59bd9653f200f220920489ca2b5937696c31910160405180910390a3505050565b6001600160a01b0383163b1561156157604051630a85bd0160e11b81526001600160a01b0384169063150b7a0290611482908890889087908790600401612407565b6020604051808303815f875af19250505080156114bc575060408051601f3d908101601f191682019092526114b991810190612443565b60015b611523573d8080156114e9576040519150601f19603f3d011682016040523d82523d5f602084013e6114ee565b606091505b5080515f0361151b57604051633250574960e11b81526001600160a01b03851660048201526024016106c1565b805160208201fd5b6001600160e01b03198116630a85bd0160e11b1461155f57604051633250574960e11b81526001600160a01b03851660048201526024016106c1565b505b5050505050565b606061157382611263565b505f828152600660205260408120805461158c90612246565b80601f01602080910402602001604051908101604052809291908181526020018280546115b890612246565b80156116035780601f106115da57610100808354040283529160200191611603565b820191905f5260205f20905b8154815290600101906020018083116115e657829003601f168201915b505050505090505f61161f60408051602081019091525f815290565b905080515f03611630575092915050565b81511561166257808260405160200161164a92919061245e565b60405160208183030381529060405292505050919050565b6112b484611875565b5f6001600160e01b03198216632483248360e11b14806104785750610478826118e6565b80806116a357506001600160a01b03821615155b15611764575f6116b284611263565b90506001600160a01b038316158015906116de5750826001600160a01b0316816001600160a01b031614155b80156116f157506116ef81846111d5565b155b1561171a5760405163a9fbf51f60e01b81526001600160a01b03841660048201526024016106c1565b81156117625783856001600160a01b0316826001600160a01b03167f8c5be1e5ebec7d5bd14f71427d1e84f3dd0314c0f7b2291e5b200ac8c7c3b92560405160405180910390a45b505b50505f90815260046020526040902080546001600160a01b0319166001600160a01b0392909216919091179055565b5f806117a0858585611935565b90506001600160a01b0381166117fc576117f784600980545f838152600a60205260408120829055600182018355919091527f6e1540171b6c0c960b71a7020d9f60077f6af931a8bbf590da0223dacf75c7af0155565b61181f565b846001600160a01b0316816001600160a01b03161461181f5761181f8185611a27565b6001600160a01b03851661183b5761183684611aa4565b6112b4565b846001600160a01b0316816001600160a01b0316146112b4576112b48585611b4b565b6118688383611b99565b6107a7335f858585611440565b606061188082611263565b505f61189660408051602081019091525f815290565b90505f8151116118b45760405180602001604052805f8152506118df565b806118be84611bfa565b6040516020016118cf92919061245e565b6040516020818303038152906040525b9392505050565b5f6001600160e01b031982166380ac58cd60e01b148061191657506001600160e01b03198216635b5e139f60e01b145b8061047857506301ffc9a760e01b6001600160e01b0319831614610478565b5f828152600260205260408120546001600160a01b039081169083161561196157611961818486611c8a565b6001600160a01b0381161561199b5761197c5f855f8061168f565b6001600160a01b0381165f90815260036020526040902080545f190190555b6001600160a01b038516156119c9576001600160a01b0385165f908152600360205260409020805460010190555b5f8481526002602052604080822080546001600160a01b0319166001600160a01b0389811691821790925591518793918516917fddf252ad1be2c89b69c2b068fc378daa952ba7f163c4a11628f55a4df523b3ef91a4949350505050565b5f611a3183610d97565b5f838152600860209081526040808320546001600160a01b0388168452600790925290912091925090818314611a86575f83815260208281526040808320548584528184208190558352600890915290208290555b5f938452600860209081526040808620869055938552525081205550565b6009545f90611ab59060019061248c565b5f838152600a602052604081205460098054939450909284908110611adc57611adc61227e565b905f5260205f20015490508060098381548110611afb57611afb61227e565b5f918252602080832090910192909255828152600a90915260408082208490558582528120556009805480611b3257611b3261249f565b600190038181905f5260205f20015f9055905550505050565b5f6001611b5784610d97565b611b61919061248c565b6001600160a01b039093165f908152600760209081526040808320868452825280832085905593825260089052919091209190915550565b6001600160a01b038216611bc257604051633250574960e11b81525f60048201526024016106c1565b5f611bce83835f6112a8565b90506001600160a01b038116156107a7576040516339e3563760e11b81525f60048201526024016106c1565b60605f611c0683611cee565b60010190505f8167ffffffffffffffff811115611c2557611c2561206b565b6040519080825280601f01601f191660200182016040528015611c4f576020820181803683370190505b5090508181016020015b5f19016f181899199a1a9b1b9c1cb0b131b232b360811b600a86061a8153600a8504945084611c5957509392505050565b611c95838383611dc5565b6107a7576001600160a01b038316611cc357604051637e27328960e01b8152600481018290526024016106c1565b60405163177e802f60e01b81526001600160a01b0383166004820152602481018290526044016106c1565b5f8072184f03e93ff9f4daa797ed6e38ed64bf6a1f0160401b8310611d2c5772184f03e93ff9f4daa797ed6e38ed64bf6a1f0160401b830492506040015b6d04ee2d6d415b85acef81000000008310611d58576d04ee2d6d415b85acef8100000000830492506020015b662386f26fc100008310611d7657662386f26fc10000830492506010015b6305f5e1008310611d8e576305f5e100830492506008015b6127108310611da257612710830492506004015b60648310611db4576064830492506002015b600a83106104785760010192915050565b5f6001600160a01b038316158015906112b45750826001600160a01b0316846001600160a01b03161480611dfe5750611dfe84846111d5565b806112b45750505f908152600460205260409020546001600160a01b03908116911614919050565b6001600160e01b03198116811461123c575f80fd5b5f60208284031215611e4b575f80fd5b81356118df81611e26565b5f5b83811015611e70578181015183820152602001611e58565b50505f910152565b5f8151808452611e8f816020860160208601611e56565b601f01601f19169290920160200192915050565b602081525f6118df6020830184611e78565b5f60208284031215611ec5575f80fd5b5035919050565b80356001600160a01b0381168114611ee2575f80fd5b919050565b5f8060408385031215611ef8575f80fd5b611f0183611ecc565b946020939093013593505050565b5f610100808352611f228184018c611e78565b905089602084015288604084015287606084015286608084015285151560a084015284151560c084015282810360e0840152611f5e8185611e78565b9b9a5050505050505050505050565b5f805f60608486031215611f7f575f80fd5b611f8884611ecc565b9250611f9660208501611ecc565b9150604084013590509250925092565b60e081525f611fb860e083018a611e78565b602083019890985250604081019590955260608501939093526080840191909152151560a0830152151560c090910152919050565b5f60208284031215611ffd575f80fd5b6118df82611ecc565b801515811461123c575f80fd5b5f8060408385031215612024575f80fd5b82359150602083013561203681612006565b809150509250929050565b5f8060408385031215612052575f80fd5b61205b83611ecc565b9150602083013561203681612006565b634e487b7160e01b5f52604160045260245ffd5b5f67ffffffffffffffff808411156120995761209961206b565b604051601f8501601f19908116603f011681019082821181831017156120c1576120c161206b565b816040528093508581528686860111156120d9575f80fd5b858560208301375f602087830101525050509392505050565b5f805f8060808587031215612105575f80fd5b61210e85611ecc565b935061211c60208601611ecc565b925060408501359150606085013567ffffffffffffffff81111561213e575f80fd5b8501601f8101871361214e575f80fd5b61215d8782356020840161207f565b91505092959194509250565b5f82601f830112612178575f80fd5b6118df8383356020850161207f565b5f805f805f8060c0878903121561219c575f80fd5b863567ffffffffffffffff808211156121b3575f80fd5b6121bf8a838b01612169565b9750602089013596506040890135955060608901359450608089013591506121e682612006565b90925060a088013590808211156121fb575f80fd5b5061220889828a01612169565b9150509295509295509295565b5f8060408385031215612226575f80fd5b61222f83611ecc565b915061223d60208401611ecc565b90509250929050565b600181811c9082168061225a57607f821691505b60208210810361227857634e487b7160e01b5f52602260045260245ffd5b50919050565b634e487b7160e01b5f52603260045260245ffd5b5f602082840312156122a2575f80fd5b81516118df81612006565b634e487b7160e01b5f52601160045260245ffd5b5f600182016122d2576122d26122ad565b5060010190565b601f8211156107a757805f5260205f20601f840160051c810160208510156122fe5750805b601f840160051c820191505b81811015611561575f815560010161230a565b815167ffffffffffffffff8111156123375761233761206b565b61234b816123458454612246565b846122d9565b602080601f83116001811461237e575f84156123675750858301515b5f19600386901b1c1916600185901b17855561155f565b5f85815260208120601f198616915b828110156123ac5788860151825594840194600190910190840161238d565b50858210156123c957878501515f19600388901b60f8161c191681555b5050505050600190811b01905550565b608081525f6123eb6080830187611e78565b6020830195909552506040810192909252606090910152919050565b6001600160a01b03858116825284166020820152604081018390526080606082018190525f9061243990830184611e78565b9695505050505050565b5f60208284031215612453575f80fd5b81516118df81611e26565b5f835161246f818460208801611e56565b835190830190612483818360208801611e56565b01949350505050565b81810381811115610478576104786122ad565b634e487b7160e01b5f52603160045260245ffdfea2646970667358221220616937f3cecc3dfbb23a9226164f544a2f9736253d07efb6d504b0469662df4d64736f6c63430008180033",
  "linkReferences": {},
  "deployedLinkReferences": {}
}